:20000000003C01203121010039FB021039FB021039FB021039FB021039FB021039FB02108C
:1C00200039FB021039FB021039FB021039FB021039FB021039FB021011FB021002
:20003C002DE9F04FBE4D4FF0FF30686000272F604FF00209C5F80890ADF1240DEF6010206B
:20005C0016F0EBFC286140B1076005F1140141602C69876005F15006E6608CA068610826D9
:20007C00EE614FF0FF34AC6140202D6216F0D5FC05F114043946AB4B686218B1CA00875019
:20009C0082185360491C0829F7DB83A028650326AE654FF0FF336B651820ED6516F0BDFC19
:2000BC00002828660AD080A101609F49416080A28260C16002D080A202614161AF624FF01B
:2000DC00010BC5F830B04FF0FF30E86208206C6316F0A3FCA86318B1076005F13C014160F8
:2000FC0077A00626E8634FF0FF346E6405F128032C643020AB6416F090FC0646002EEE64A4
:20011C0018D075A030608948706075A1B160F06010D075A1316177A2706106F11804226017
:20013C00F06107D075A1316279A2706206F128042260F06217F002F912F0F2FC061C00F0EA
:20015C00A38515F0DFF87A498446384631F80C4F002C40F095854FF6F8720A804E60754CD2
:20017C0020708F6070682061604615F06FFF04F144063946304617F0DDF86F4841F28832BE
:20019C003B4666616D49009004F1500012F0F8FD6B4E6C493A46152306F126000090102076
:2001BC0008F004FA684910203A464B4608F0FEF94FF480605946324605F0DCFC40F20240D1
:2001DC005946721C05F0D6FCB21C40F20340594605F0D0FCF21C40F20640594605F0CAFC8C
:2001FC00321D40F21140594605F0C4FC721D40F20D40594605F0BEFCB21D40F2124059466F
:20021C0005F0B8FCF21D40F20C40594605F0B2FC06F108024FF48360594605F0ABFC06F1F1
:20023C00090240F20740594605F0A4FC06F10A0240F21440594605F09DFC06F10B0240F2FE
:20025C001540594605F096FCCC4910204FF0FF3208F0ACF9CA4910204FF0FF3208F0A6F96B
:20027C001020DFF820A30090C84AC748132351460190102008F09AF9202016F0CEFB014678
:20029C00C3488046816000296FD05FE0576F726B207769746800C046536574204175746F7F
:2002BC00436F6E6E6563740044697361626C650047726F757020410047726F7570204200C7
:2002DC0053657420436F6E6E2050485920507265666572656E63650031204D62707300C055
:2002FC0032204D62707300C03120262032204D62707300C0436F64656400C0463120262087
:20031C0032204D6270732C202620436F646564004175746F20504859206368616E6765003C
:20033C00A0300020893401004D87000015B20000E81C0020E00F002021240020F945010081
:20035C003C1D002079110100E13601004FF6F870C01D14F025F8CE49102008F114020090D4
:20037C0011230191514608F021F903238DF8189058468DF8193004228DF81700C5498DF8DE
:20039C001A200DF10E0338460A6809791A600DF11702197159460CF047FD5846594606AA9F
:2003BC000CF042FD484659460DF119020CF03CFD032059460DF11A020CF036FD0420052116
:2003DC000DF10E020CF030FD04F1180004F13C02CA49C8F80400102008F0E8F8207814F00F
:2003FC004FFCC7490246102008F0E0F8207814F047FCC4490246102008F0D8F8C2491020D7
:20041C00FB2240F6480308F0D1F8C049102008F0CDF8DFF8FCA20AF118000AF10C010DF0DE
:20043C0011FBBC49CAF8080016F0D2F9DFF8E882DAF808004FF4E0214246521E13F046FE56
:20045C00DAF808004FF4E021424613F03FFEDFF8CC82DAF808004FF0C0514246521E13F050
:20047C0035FEDAF808004FF0C051424613F02EFEB8460AF12400C8223B46A949CDF800808D
:20049C0012F07EFCA7484FF6F877CAF80400781D10F028FB207814F0F3FB0C360346042268
:2004BC004846A14900901020019608F07FF804F1E80704F1E800C0220890414638460FF0A3
:2004DC006EFC4FF6F876F61D0820401E27F8186BFBD14FF0FF30414611F03EFAE0604146E7
:2004FC004FF0FF32C5A02860284614F097FEE068DFF81C9358B1AF684FB149460727086168
:20051C00C74E0F702846CE6013F0A4FEE0684D4629784246C7A314F028FD04F108008022B4
:20053C000423C0490090102008F040F8DFF8F89204F10807C0B278B100902978E068C3A3A0
:20055C000A31CAB2414614F010FD0097494610208022042308F02AF8387849468022401CBA
:20057C00387004230097102008F020F8C2B2E16828787AB93F78BAA33A460CE08D530100C8
:20059C00D53B01004D4D0100209201002C160020CC180020B7A300920A30C2B2084641460B
:2005BC0014F0E3FC206900214FF040424FF0FF3316F0BCFE5FEA000BF4D0002002900DF1D8
:2005DC00160102AA03A814F0A5F8002840F0B781BDF80C00102840F0AE8120789DF81610B5
:2005FC00884240F0A881029908884FF6FF72824200F0A1810E46307891381DD01F3803D029
:20061C00203800F0958196E13379E0682A787E2B04D07F2B0AD10989BDA301E0317AC0A370
:20063C000091521CD1B2002214F09FFC317906F1080016F077FE7EE170780E3845D0401E37
:20065C002AD0401E00F05E812E3840F07481B0780C2840F07081F778E068297887B9F2794C
:20067C00012A08D0022A08BFC8A205D0032A0CBFC7A2C9A200E0CEA20092891CCDA301E085
:20069C00491CD1A3C9B2002214F06FFC0C2018E02C920100ED920100B08842F23201814294
:2006BC0040F04981B278E06829781A2A1ABF0092CAA3D2A3491C0022C9B214F056FC42F2F4
:2006DC00320031460FF0AEF835E1B168B788087841F20542BF1A29D0A7F62B47002F40F008
:2006FC002A81002840F02781C878009008790190E1682878D9A38E46C01DF9E041540100CC
:20071C00D96C02102D6D02100D520210397F01107C1F0020D13F01000E0005800E00001003
:20073C00D56101009B560100D1970000B168491C91F902A0002840F0FE804A78087800EB5F
:20075C00022015F089FA95F800C0D4F80CE00746082F80F2CE80BAF17F0F00F0BC80089885
:20077C00F90001EB07114618727C531C73748A18121882F80CA0727C4FF0050843464018B1
:20079C000C30002192FBF3F303FB08F3D21A4346727410F9012B5B1E0A4411B2F9D140460A
:2007BC0091FBF0F040B2B074F37C002B40F0938010F11F0F4FF0000904DD337D022B18BFB2
:2007DC00002B61D196F9120010F11E0F07DA10F1290F04DD337D012B18BF002B26D110F100
:2007FC00330F04DD10F1280F75DA337D93B910F1320F70DA04224FF0020946E053696D707C
:20081C006C65205065726970686572616C00C0463022002004224FF001094FF0060836E075
:20083C0021C4000071510100995101004FF0010842462CE03D3D3D3D3D3D3D3D3D3D3D3D51
:20085C003D3D3D3D3D3D3D3D00C046C0534E562052454144204641494C3A20256400C04676
:20087C004E756D206F66205265736574733A20256400C046534E562057524954452046416F
:20089C00494C3A20256400C002224FF00208737D984502D1B07D022801DB98451BD0308844
:2008BC0011464B4613F066FC0120F074707D80451CBF0020B075B9F1000F06D0B9F1010F2F
:2008DC0014BF4FF002084FF0060886F81580D4F80CE095F800C0F8000899CDF800A000EB92
:2008FC000710401890F91200AEA301900CF1050002E00CF10100C0A3C1B27046002214F05C
:20091C0034FB18E00820002107F054FA13E0C0464D54552053697A653A20256400C046C0B3
:20093C0046432056696F6C617465643A20256400084601F01BFE029808B116F02EF85FEAB7
:20095C00DB70FFF42FAE606916F0E8FC00287FF429AE6069064616F0DDFC864208BF002692
:20097C0002D0866813F036FD002EECD03078401E082800F27D81DFE810F05601ED00C70083
:20099C00A3008D007E00790173015900324D00C0434F44454400C046556E65787065637456
:2009BC006564205048592056616C756500C046C0314D00C050485920557064617465642028
:2009DC00746F20257300C046504859204368616E6765206661696C75726500C0504859202A
:2009FC0055706461746520537461747573204576656E743A203078257800C04650485920FC
:200A1C004368616E6765206661696C7572652C207065657220646F6573206E6F7420737530
:200A3C0070706F7274207468697300C070684788384615F011F9E1682A78082818DA089BE9
:200A5C00C10001EB0011C918C87D012840F0108190493A46102007F0A9FD09E1525850683A
:200A7C003A2025642C20545850683A20256400C0571C61A340E002200DF11B0112F018FD3A
:200A9C00002840F0F580032001210DF11B020CF0CBF9EDE07768787A48B1C048009029787D
:200ABC00E06800227CA3C91CC9B214F05EFABB480090B949FA880023102007F077FDD7E049
:200ADC0072681079E1682F781278DAB1521E10D0521E08D0521E40F0CB8000280EBF72A305
:200AFC00009076A307E0002808BF7AA303D07EA305E018B982A3FF1C8846ABE084A3FF1CB9
:200B1C008846A6E087A3F6E77768E26828783968491E0CD0491E08D00E3912D179680B78E4
:200B3C000093498883A3019105E08BA300E08FA3796809780091001DC1B21046002214F059
:200B5C0014FA3868B0F1004F00F09280786813F041FC8DE070680078010932D24009C0F0F5
:200B7C0087800E2015F05AFB002840F081806A68A8689168814213D0B0F1FF3F78D011694F
:200B9C0051F830702FB901EBC001486813F062FB6EE0116901EBC0014968C0B2884767E0FD
:200BBC00D068F3E7525353493A25642064426D2C2041564720525353493A25642064426D4F
:200BDC0000C00D2015F02AFB002851D16968A8688968814208D0B0F1FF3F09D0401C13F014
:200BFC0065FDB0F1FF3F02D1002013F05FFDA8600AF076FD3CE0C046436F6E6E656374697C
:200C1C006F6E2068616E646C65206973206E6F7420696E2074686520636F6E6E4C69737420
:200C3C002021212100C070682F78D4F80C8000787F1C38B1801E1BD1022007A912F038FCF0
:200C5C004FA304E0002007A912F032FC4FA39DF81C000090F9B24046002214F086F907E0B2
:200C7C007068B0F801000BF035FC05E010F088FF706808B113F0AEFB304613F0ABFB62E69B
:200C9C00401C0628FFF462AA15F0F7FE09B0BDE8F08FC0460D2B021050617373636F646556
:200CBC003A20256400C046C0426F6E642073617665207375636365737300C046426F6E647B
:200CDC002073617665206661696C65643A20256400C046C0456E6372797074696F6E20733D
:200CFC0075636365737300C0456E6372797074696F6E206661696C65643A20256400C046F9
:200D1C0050616972696E6720737563636573730050616972696E67206661696C3A2025646B
:200D3C0000C046C050616972696E672073746172746564004164762053657420256420645C
:200D5C00697361626C656420616674657220636F6E6E20256400C04641647620536574206D
:200D7C0025642044697361626C6564004164762053657420256420456E61626C656400C0FB
:200D9C004368617220333A20256400C04368617220313A20256400C02D46010040E20100BA
:200DBC0038B586B004468DF805104FF6FF720120ADF80220090ADFF8E458ADF80000022382
:200DDC008DF806108DF8043069462A78204616F09DFA162803D12978204616F093FA07B0EC
:200DFC0030BD3EB504000D461ED0DFF8B4080068224616F083FAFF2815D0002000900023ED
:200E1C0001AA294620460CF055FB60B99DF8040000F0F0F8C00606D59DF8040000F0EAF854
:200E3C0010F0040000D001203EBDFEB5164615244FF6FF7290420D4615D100208DF80400F4
:200E5C00DFF858789DF80400B97988421AD23246294600F03AF800B100249DF80400401C7B
:200E7C008DF80400EEE716F045FA50B100F0FBFA40B99DF804003246294600F026F8002422
:200E9C0000E014242046FEBD7CB50D46044606214C43164600F081F8A8B900F079F890B9A9
:200EBC009DF80700002E14BF054320EA0505E9B2814206D08DF807506A460821A0B214F0DE
:200EDC005DF9012076BD002076BD2DE9FC410646344606235C438846154600F05EF8002881
:200EFC0053D100F055F800284FD1DFF8B077F879800015F053FB040003D1042013F09CFF51
:200F1C0043E0F979E03689062246090EB0B214F021F9002835D1204600F058F85FEA080057
:200F3C000ED1FA799206120E0021204614F095FD38BBFA7992000021204615F0BFF916E03C
:200F5C00214600F030F858B9280004D02146002000F029F810B900F025FB16E0A0F800806A
:200F7C008178A9420DD085700DB900210180204600F02CF8F97989062246090EB0B214F0D7
:200F9C00FDF800F00FFB012000E00020BDE8F6810622FF21684614F060BD20346A460821C5
:200FBC00A0B214F0D7B870B5DFF8F036DD79002200E0521CD4B2AC4206D231F82460864287
:200FDC00F7D101EB840070BD002070BD10B50021DFF8C8260AE030F82130DB4320F82130AE
:200FFC0000EB8103491C9C78E4439C70D3799942F1DB10BDE0B50623584320306A46082178
:20101C0080B214F0A7F810B99DF807000EBD00200EBDDFF88806007808210BF029BB38B5F2
:20103C000025DFF8784619E0E069062313FB05F300EBC5022033082198B214F08BF858B161
:20105C00E0690622FF2100EBC50015F037F9E06900EBC5010022CA716D1CEDB2A1798D4296
:20107C00E2DBA07C10B1BDE8314031E231BDF8B5DFF82816DFF82C3689791E680C460A467E
:20109C0000E02A46D5B23DB1551ED2B2324412F8017C8742F5D12C46E4B220464D1E07E02C
:2010BC001718165C7F7817541A680244401C5670A8421A68F4DBAC4204DABDE8F84005201E
:2010DC0014F05CB8F1BD38B500200024DFF8CC5503E0E0B200F008F8641CAA79E1B2914297
:2010FC0001D20100F5D032BD2DE9F84F83465D46062313FB05F58EB005F1200701AA082123
:20111C00B8B214F027F8002874D10622FF2101A814F0A3FC00286DD1DFF88065F07980001A
:20113C0015F03CFA5FEA000904D1042013F084FE0A2061E01C22FF2103A815F0BFF8F279ED
:20115C009200FF21484615F0B9F805F123040AAA1021A0B213F0FEFF60B91022FF210AA80C
:20117C0014F07BFC30B99DF80A0001A900F0010016F0BCF8082200F042F801AA0821B8B269
:20119C0013F0FCFF8DF8000003AA05F1210000F03AF8074605F1220003AA00F034F88046D6
:2011BC0003AA1021A0B213F0E9FF044605F1240003AA102100F028F88246253503AA0421B2
:2011DC00A8B248EA070713F0D9FF2743F1799DF800504AEA0707074389060BF1E0034A463B
:2011FC00090E98B213F0CAFF0743484615F0DEF93D4300E0002528460FB0BDE8F08FFF21FC
:20121C0001A815F05BB81C2180B213F0B7BF2DE9F84187B0FF208DF80000DFF88054A87913
:20123C0015F0BCF9040004D1042013F005FE0A2030E01022FF2103A815F040F8AA79FF211E
:20125C00204615F03BF80622FFF7D9FF03AA1021022013F093FF064603AA1021032013F0F9
:20127C008DFF06436A460121042013F087FF0746A9792246052013F081FF054601AA062162
:20129C00062013F07BFF804600F08CF93E432E4348EA060008B0BDE8F081DFF800144088A9
:2012BC00097813F0F3BEF0B5A9B006460D46144616F020F808B91420AAE0A42200216846B4
:2012DC0014F0FCFFADF800600DF12607DFF8CC63F078717B8DF80400B07B8DF8A0002798D1
:2012FC0061F30000717B27908A074CBF0222002220F0020010432790CA064CBF4FF48072CD
:20131C00002220F48070104327908A064CBF4FF40072002220F40070104327904A064CBF26
:20133C004FF48062002220F480601043279049074CBF0421002120F0040008432790F07B2A
:20135C0002280CBF01200020787415F0CBFF412807DBF07B00B108209DF8991008438DF8E3
:20137C009900307CB8B10121B974202206F188010DF1390014F098FF202206F1A8010DF1E0
:20139C00590014F091FF202206F1C8010DF1790014F08AFF00E0B874307B8DF8050088B1C4
:2013BC00C14F102207F110010DF1060014F07CFF9DF89900082805D1102239460DF116004A
:2013DC0014F072FFF07A8DF8260028B11022B7490DF1270014F068FF307948B1022D18BF24
:2013FC00032D03D1279840F002002790012100E000219DF899000143B0788DF8991000B189
:20141C00042001438DF899106846214615F066FF29B0F0BD2DE9FC41154615244FF6FF7278
:20143C00904288460DD100279C4EB179F8B2884216D22A464146FFF727FD00B100247F1CFA
:20145C00F3E715F057FF50B100F00DF840B99DF804002A464146FFF717FD002400E0142476
:20147C002046BDE8F681002100910023417901AA01F00101801D0CF01DB870B504460D4671
:20149C0006204543082B88B0164603D1300758BF223500D521351C220021FFF7B1FE01AA68
:2014BC001C21A8B213F056FE80B99DF81E00C01F0A280BD29DF830000090F20801AB02F05B
:2014DC00010206F00101204615F004FF08B070BD38B515F0FBFE0024704D0FE0E86906226E
:2014FC00FF2100EBC40014F0B8FA28B9E86900EBC401002015F0E6FE641CE4B2A879844263
:20151C00ECDB31BD3EB50C46002501460095002301AA20460BF0CEFF38B99DF80400FFF738
:20153C0069FDC00601D401203EBD00203EBDF8B506460F4615460C2015F030F8040019D068
:20155C002681A77200202060E07245B10821284614F0ACFB606018B900F024F80BE060603D
:20157C005348016811B9046004E0014608680028FBD10C600CB91520F2BD0120E0722A4696
:20159C0039463046FFF78FFE04464448806900281CBF4368002B03D00022002130469847B4
:2015BC002046F2BD204615F001B838B505464048046803E02089A84204D02468002CF9D1DE
:2015DC00012032BDE07A012807D100F05CF820B13248007804210BF04BF8E17A491CE17207
:2015FC002846C9B200F002F8002032BD38B5022904462A4D02D003290DD01EE042F6C92119
:20161C00FFF7CEFB02001CBFA869002818D04368B3B105210CE042F6A621FFF7C1FB01001E
:20163C001CBFA96900290BD04B684BB102460421204601B0BDE830401847BDE8324000E0FF
:20165C0031BD10B51A4A1468002101E0214624686CB123898342F9D1206800290CBF1060A2
:20167C000860606808B114F0A1FFFFF79BFF002010BD024604200E49096819B10B899342DD
:20169C00FAD1C87A70470A48006828B1006818B1C17A0029FAD1704700207047FC1A0020B3
:2016BC00680F0020E83500209C330020CC330020EC35002038B5264C049D2070E271237273
:2016DC00A1716572C80014F069FFE061D8B1A279D200002114F0F2FDA07914F05FFF206209
:2016FC0008B9E0690DE0A2791A4D002114F0E6FDA07914F053FF286050B9E06914F056FFAB
:20171C00206A14F053FFBDE83240042013F094BBA279002114F0D2FD04F1E80015F0CEFD84
:20173C002178062011F0CEFFFFF779FC2A68A179052013F00FFD48B1A179002004E02B680B
:20175C000A1A521E1A54401C8842F8DB31BD00BFFC1A0020E83500202DE9F84F054688B072
:20177C00A978DFF83C67002710294FF0060A3CD8DFE811F0110092039203920392033C0086
:20179C00CF0092039203F5021501000147039203CB020D038A036878002826D115F08AFD52
:2017BC00044615F083FD054615F07CFD8DF8000022461021022013F0E1FC2A461021032091
:2017DC0013F0DCFC6A460121042013F0D7FC9DF80000012818BF032807D1012015F05EFD2D
:2017FC0002460621062013F0C9FC55E368780028FBD195F80CB06C8900900023E97801AA67
:20181C0001F00101281D0BF055FE00284FF0010875D19DF80400FFF7EDFB8146BBF1080F6F
:20183C00F07908BFB846800014F0B8FE050003D1042013F001FB2FE370789DF8041002285B
:20185C000CBF0120002000905B464A462046FFF714FE1422002102A814F030FD9DF8040066
:20187C001AFB00F0243002AA102180B213F072FCB0B91022FF2102A814F0EFF880B99DF855
:20189C0004001AFB00FA0AF1250306AA042198B213F060FC02AA09F00101204615F0FAFC70
:2018BC00F1799DF804008906E0302A46090E80B213F050FC98B92846FFF788FBBA4609E041
:2018DC0005EB8000018819B18278204613F038FF0AF1010AF1795FFA8AF08842F0D3707AD5
:2018FC0030B95FEA897003D53178204613F0CEFB9DF80400FFF7BBFB284614F057FE7078FA
:20191C00022805D1B8F1000F02D020460FF094FFC2E2A888FFF795FE15F0B8FC0028F7D123
:20193C00F07C012808D1FFF7CEFB306AF7740422002114F0C3FC17E0307D012803D1FFF7B8
:20195C0066FC377510E000240AE0306AE5B2415D012904D1E0B2FFF7C7FB316A4F55641C88
:20197C00E0B2B1798842F0D3502013F0D9FFFFF756FB91E215F086FC00280CD0B069002831
:20199C001CBF0468002C07D0286900906B7B2A7B6989E81CA0477EE26889012171E26878B2
:2019BC00002840F0EB80A879C10740F1E7800822002105A814F082FCA88815F09BFC04007D
:2019DC006FD0D5F81480B8F1000F27D00622002108F1110014F041F858B306220021404632
:2019FC0014F03BF8C8B998F8100000F00109BB460BF1010B88F811B00097002300224946C4
:201A1C0008F111000BF056FD00285FFA8BF002D10028EDD101E000280BD16F61607900F01F
:201A3C0001008DF81A000622A11D05A814F03CFC24E0D5F81480B8F1000F1FD098F810006F
:201A5C0000F001008DF81A00062208F1110105A814F02AFC6079012805D10622A11D04F11D
:201A7C000C0014F021FC062208F11101A01D14F01BFC98F8100040F002006071A879410706
:201A9C0020794CBF40F0020000F0FD002071A879010720794CBF40F0200000F0DF00207159
:201ABC0006E0FFF7F0FD18B1307804210AF0E0FDA9799DF81B00890801F0010108438DF8AE
:201ADC001B00A97900970A074CBF0821002108438DF81B0000239DF81A1004AA05A80BF08D
:201AFC00E9FCF0B1002400E0641CB179E0B288420AD2F069E3B20622FF2100EBC30013F077
:201B1C00ACFF0028F0D009E0DFF89823107800281DBFDFF89413086804780C468DF810407E
:201B3C0019E06869B8B19DF810001AFB00F023306A46102180B213F00DFB60B91022FF21D0
:201B5C00684613F08AFF30B99DF81A0005A900F0010015F0CBFB9DF81000B179884280F024
:201B7C00D280F079800014F019FD04001DD1042013F062F90A27A888FFF763FDB069002888
:201B9C001CBF4368002B0FD06A78A888012198476878002808D1A879C10705D5B369A88896
:201BBC005C683A460321A04775E19DF810001AFB00F0203005AA082180B213F0DFFA9DF8EF
:201BDC001000FFF754FAF2799200FF21204614F075FBF1799DF810008906E0302246090E71
:201BFC0080B213F0CBFAF0699DF81030082205A900EBC30014F058FB6A6992B1107C0023FF
:201C1C0002F1110100F0010015F038FB6A6942B19DF810001AFB00F02330102180B213F051
:201C3C00ADFAAA6842B19DF810001AFB00F021301C2180B213F0A2FA2A6942B19DF81000A8
:201C5C001AFB00F022301C2180B213F097FAEA68AAB19DF810001AFB00F02430102180B200
:201C7C0013F08CFAE86800F110029DF810001AFB00FA0AF12503042198B213F07FFAB07C7E
:201C9C0008B1FFF725FCB5F80480706A4FF6FF7948B906F1160100910223844A494601204D
:201CBC0015F0E8FA7062716A11B3FF20039002220292019707A800900DF11203F28A40465A
:201CDC0004F0F0FE68B99DF812009DF8131000EB012290B228B1706A418992B24046FFF7F9
:201CFC00A4F8F28A706A0023494615F0BFFA7062204614F05BFC307A0028A8887FF43CAF73
:201D1C00FFF753FC3AE7152735E7687806281BD1A88815F0EFFAB8B1717C012904D013D397
:201D3C00032907D00CD30FE04179A8880022FFF7FEFB09E00022002140F2094003F01AFF08
:201D5C00A888052115F08EFAB06900281CBF4368002B03D06A78A888022198479BE0009799
:201D7C000023E97801AA01F00101281D0BF0A2FB0028F3D19DF804001AFB00FA0AF1250391
:201D9C0005F10C02042198B213F0F8F983E0B06900281CBF4368002B03D0A8880022002125
:201DBC009847707810B9A88805216AE0A88815F0A1FA040070D0A87AC10712D50097002338
:201DDC006179002201F00101A01D0BF073FB00281EBF60790028012803D0E868C0F340206D
:201DFC0028B1F07B022807D1A87A010704D4A888032115F033FA4FE06179A88805F10802C0
:201E1C0027E02F7BAD88284615F074FA040042D015F038FA00283ED100900023617901AA23
:201E3C0001F00101A01D0BF045FB28BB9DF80400FFF7E0F807F00C07042F11D0082F0BD021
:201E5C000C2F0FD100F0090109290BD0617900222846FFF76CFB1EE010F0090F02D1F5E7B8
:201E7C00C107F3D501220092A37C9DF8041002462846FFF702FB0EE070780028E6D10521B5
:201E9C00284615F0EBF906E0FFF7FDFB18B1307804210AF0EDFB0127384609B0BDE8F08F00
:201EBC00FC1A00204F360020E8350020D88D01002DE9F84F012012F043FB012816D1DFF8E3
:201EDC0060663078002115F0C5F9040004BF002012F0B2FF00202072201D0BF0D7F915F03B
:201EFC00B5F9050003D1812015F0ACF913E30120687105F59777DFF82C06DFF82C26417811
:201F1C00491C4170A879A0724020317811700BF061F92860616D4A78206DD10619D5816C26
:201F3C000A681179032904D00CBF0120002012F083FF206D816C90F86C000A6802F1080A14
:201F5C0001281CBF002012F077FF216D486F29683CE0C16E0A681179032904D00CBF0120C0
:201F7C00002012F069FF206DC16E90F898000A6802F1080A01281CBF002012F05DFF216D58
:201F9C00DFF8A825D1F8A0002968DFF8A435C8609AF82660032E19D8DFE806F002050C0F96
:201FBC0000F5B06001E000F53470C8601088F887118808E000F5355001E000F6B870C86025
:201FDC001888F8871988A5F8741102E000F5B060C8602868DFF85C65C168DFF85C8501F5F5
:201FFC009071C16006229AF80000C0F3801038700AF1020105F5947014F056F904220AF18E
:20201C000E0105F1240014F04FF9306895F8069000F10C0304220AF10E0103EB491014F0F9
:20203C0043F93068AB7900EB431303220AF1120103F1100014F038F905F12C099AF815000D
:20205C0089F8020002220AF1160105F1300014F02BF902220AF1180105F1320014F024F9DC
:20207C0002220AF11A0105F1340014F01DF9B9F80800688402220AF11C0105F1360014F0B5
:20209C0013F999F80200B9F80A10400089F802000901B9F80400A9F80A104000A9F8040098
:2020BC0089B2B9F806004000A9F8060003046A8C521CDB0B5A438A4201D280B230B998F8F3
:2020DC00000080210AF0D4FA3B2131E105F12E01284615F0B3F80520A881284615F0AAF867
:2020FC0005220AF11E0105F1610014F0DDF89AF82300400989F8000015F098F86882618D67
:20211C00401AB88105F161019AF82300DFF82C7400F01F0089F80F004FF01C0A284615F015
:20213C0081F8616D4A78206DD1064CBF816CC16E41F62102086800210171A97938681AFBBB
:20215C0001F142520021AB791AFB03F303445980AA791AFB02F210444160616DDFF8E003C4
:20217C004A78D1060DD5DFF8DC138A7851060AD5DFF8D423138841F20A418B4208BFDFF878
:20219C00CC03C5F89C01D5F89C11284688473A68A97902F10E031AFB01F15854AA79386805
:2021BC001AFB02F202440020D0733968A87901F10E021AFB00F0115C89F80D10606D4178F7
:2021DC00CA061DD595F8960108B912F035FEA97938681AFB01F1014495F89601421E0A74F7
:2021FC00A87939681AFB00F00844002141743A68A97902F112001AFB01F1002242522BE049
:20221C00A97938681AFB01F10144206D90F840200A74A87939681AFB00F00844216D91F877
:20223C0041204274206D3968AB79403001F112021AFB03F34188D15205F5CB7100780122DB
:20225C0000F0030082400A70226D92F84000800814BF0120022008713968A879DFF8F0B288
:20227C0001F1140231681AFB00F301EB4010D050A87939681AFB00F00844B6498161DBF876
:20229C0014000078C107DBF8141009784CBF1F200F208A07DBF81410097848BF40F020007D
:2022BC004A07DBF81410097848BF40F040000A073168AA7901EB421348BF40F08000187273
:2022DC00A979306800EB41120B2050723168AA7901EB42100421A04A81721078012806D179
:2022FC003168A87901EB40120121D17207E0DBF824003168AA79407801EB4213D8723168EF
:20231C00A87901EB40121F2111763068AA7900EB421100204876A87914F080FFAA79316844
:20233C0052018850AA7931685201885820B90721284614F06FFFEEE08848AA79016801EB70
:20235C00021014F063FFA8793168844B01EB4012196801EB00105060A979306800EB4112FD
:20237C005168C9F83C10AA7952018158C9F84410042198F800000AF07BF9616D4A783868C4
:20239C00D10648BF02210AD4A9791AFB01F101440A7C02F00302022A14BF04210621B9F85B
:2023BC00042095F806C04FF4C8738A18698AAA615143B1FBF3F35B1C6B611AFB0CFCD5F819
:2023DC0000E06044DEF80CC040F6C41101FB02C2D21AA2F5A8628260AA7938681AFB02F2B5
:2023FC0083189A682B689A6000F10C03AA791AFB02F20C309B5C03F0EF038354A8793A68B9
:20241C001AFB00F002F10C030C321B5C03F07F031354A8793A681AFB00F002F10C030C3200
:20243C001B5C03F0F00343F002031354AB7938681AFB03F31844427B02F0F00242F0010283
:20245C004273AA7938682B681AFB02F20244906818613068AB7999F802C000F114026869AE
:20247C0040005B0111FB0C0000F5F660D05095F8960104280DD13068AA7900F114034FEAF7
:20249C00421C143053F80C20AB795B0102F56162C2503068AA7900EB4210C37C03F0F0039E
:2024BC0043F00403C374DBF830003268AB79006802EB431CB9F8062042436423B2FBF3F3A4
:2024DC005943A1F59661CCF81C103068A97900EB4110C27E02F0F00242F00402C276A9791B
:2024FC0038682A681AFB01FA00EB0A01516028460E2114F087FE1A4907200870204611F048
:20251C00B5FBAA790021204614F078FE28681549154A41618261BDE8F14F02F05FBE00BF46
:20253C00D50F0020780E0020D70F00208E0F0020900F00209C0E0020C70F0020980E0020CD
:20255C0081010210C00C00209A0F00204DE5011090930100980C0020CC0F0020A40E00201E
:20257C00C80F0020A1370100020480802DE9F04F0646C84DC34CB2782878E168ADF1240DC2
:20259C00002A00F1010000F08781C14B521F0FF2E42900F0BB80521E4DD0521E1ED00A3A26
:2025BC0040F03A82B088B77BADF8080070898DF8127060B9ADF80E00B089ADF81000F188C9
:2025DC00ADF80A103789ADF80C70012000E00020AD498DF8130002AA0D461BE1AB49B28867
:2025FC00102002AB05F0E2FF2D78E768F078AD1C30B90DF10A0010F085F889A3009007E0D6
:20261C000DF10A0010F07EF8B17800918AA30190E9B23846002212F0A8FC04F1340012F09C
:20263C00FBFF041C00F00082208909F053FF204611F0D0FEF8E11946102005F0B7FF5FFA5D
:20265C0080F82978E068002284A3491CC9B212F08CFCCDF800802978E06800224B46891CC4
:20267C00C9B212F082FCB088814613F0F5FA08282CD0C60006EB00163619E836B068071CB1
:20269C000ED014F006FA10B1384614F0F4F9384614F0B0FD384611F09DFE706811F09AFE52
:2026BC0004F1340007684E4657B182463889864203D15046394612F0FEFD3F68002FF5D1F7
:2026DC00304611F069FB30460EF00CFAB8F1000F08D104F1500014F0CEF9CD48022101228D
:2026FC0012F09CFD00260096CA4FA27810203346394605F05BFF0096E278102033463946A5
:20271C0005F054FF2878E168C01C87E11946102005F04CFF5FFA80FBCDF800B02978E06827
:20273C0000224B46891CC9B212F01FFCB04698F80100002851D1B8F80AA004F1E809082054
:20275C0000264FF6FF72A9F1180737F8181F8A4204D0401E06F10106F7D127E0A7F800A058
:20277C00032014F05AF97860D0B1082101707868A0F801A0242014F050F9B86018B978685D
:20279C0011F028FE0CE0F00000EB0610484441680091B249806841F27072012310F0F0FA4D
:2027BC00F000012100EB0610484401752D78E66808F104000FF0A6FF6D1C009000229CA3DA
:2027DC00E9B2304612F0D1FB91480121022212F025FD04F1500014F04CF9BBF1080F12DA7E
:2027FC00607880B9002600968A4DA27810203346294605F0DBFE33460093E2781020294614
:20281C0005F0D4FE10E1964DE2781020294605F0CDFEA2782946102005F0C8FE04E1C046E9
:20283C004C696E6B20506172616D20557064617465643A20257300C04C696E6B2050617273
:20285C00616D20557064617465204661696C656420307825783A20257300C04644657669C1
:20287C00636520446973636F6E6E65637465642100C046C04E756D20436F6E6E733A2025CA
:20289C006400C046E00F0020D9570110F9DC01106137010030220020B14699F80170002F49
:2028BC0040F0C280337A8DF80A30B2798DF80820F7798DF80970F37A8DF80F30727A8DF836
:2028DC000D2000278DF80C70B37A8DF80B7002AA8DF80E30634B166852681E60C6B20846C1
:2028FC0031465A6056A33A4612F03FFBA01CDFF87CA1604E5C4900905246102006F13C0345
:20291C0005F054FEC0B208B113F003FC4FF00B0806F11000CDF8008055490190A2783B46BF
:20293C00102005F043FEC0B208B113F0F2FB1C2006F1580300904E490193A2781020012343
:20295C0005F034FEC0B208B113F0E3FBA2784A491020922305F02AFE0097DFF8B8B0A27889
:20297C0010203B46594605F021FEC0B208B113F0D0FBE01C3C490090524606F17403102097
:20299C0005F014FEC0B208B113F0C3FBCDF800801B3601963649E27810203B4605F006FE78
:2029BC00C0B208B113F0B5FBE27833491020922305F0FCFD0097E278102059463B4605F03E
:2029DC00F5FDC0B208B113F0A4FB2D78E66809F106000FF097FEAD1D1FA100913A461BA33C
:2029FC000190E9B2304612F0C0FA0FF0C9F8234840F6B83201231949009004F1740010F093
:202A1C00BFF91F4802213A4612F008FC0CE0C046A0300020ED740110421CD6B2C2B20846D6
:202A3C001146324613F080FE09B0BDE8F08FC046436F6E6E656374656420746F20257300F9
:202A5C00496E697469616C697A656400257320416464723A20257300494400C0F945010033
:202A7C00650202109715002099010110F9520100F1A200003C1D00201DEF0110222400206F
:202A9C00A03000202DE9F84FDFF8B054A9780024FF2904BF002012F0CFF9A87813F0B4FB06
:202ABC00054605F1680605F5C9773168086805F1900808B1EC8311E0B07B002804BFB07E1D
:202ADC0000280BD198F80010002904BF3878002804D1287F012804BF688CE8832989E88B86
:202AFC004118491C6981284614F080FB01281EBFDFF84C040178012903D12989EC83491CFB
:202B1C0069814FF6FF79B07E01280DD1B28B6989288914F067FB38B1298968894A1C93B240
:202B3C0098422FD0B08B23E098F8000001280FD1B8F802206989288914F054FB40B129895E
:202B5C0068894A1C93B298421CD0B8F802000FE03878012816D17A886989288914F042FBB0
:202B7C0080B1298968894A1C93B298420AD0788892B2904206D04844688180B214F02EFB46
:202B9C004844E883387801280FD128897988401C80B2884209DB7C793C71022038702346A6
:202BBC00A9792246002009F0FDFC05F59A71087920B128890021401CE983688105F12E0857
:202BDC00B07E01284BD12A89B08B521C92B2904245D1688105F18601284614F02FFBB08CA0
:202BFC00688400212977E983E88969894118A981B08B298914F0F2FA8146B8F80410308C96
:202C1C00728C01FB0909F08C8A4204BFB8F80810884202BFB38CB8F806108B4206D000097D
:202C3C000090B38CA9795208002004E0000900905208A979302014F0CDFAB07F88F800004A
:202C5C00718CA8F80410B08CA8F806002846F18CA8F8081014F0EEFA0220B07601E0B8F85D
:202C7C000490EA8B501C00FB09F040F6C41909FB00F100912B68D3F80CE07144D960B14B02
:202C9C001B681978890903291BD1AF4BAF49DB7BDB0702D500230B8013E00B885B1C0B8023
:202CBC009BB2012B03BF05F59A71C98801F2DC51698A41434FF4C873B1FBF3F1491C696193
:202CDC0007E0698A41434FF4C873B1FBF3F35B1C6B61A86185F820204FF01C0BDFF870A212
:202CFC00AB79DAF8000000F108021BFB03F3D1582A68116100F10801AB79D26868691BFB4F
:202D1C0003F3121ACA50DAF80000AB7900F108021BFB03F3D1582A68916000F10C02A97991
:202D3C001BFB01F10C30535C03F0F00343F002034354DAF80010AB798A1C1BFB03F30021F6
:202D5C00D152387908B912F077F8DAF80000AA7900F1100138791BFB02F240088854A8795A
:202D7C00DAF800101BFB00F00844002141743879042814D1A879DAF800101BFB00F001F170
:202D9C0010021031135C3A7A43EA82030B54AA79DAF800001BFB02F2024420205074DAF875
:202DBC000010A87901F112021BFB00F0002111526849A8790A6802F114034FEA401C14320D
:202DDC0053F80C00AB79D5F814C05B0100EB4C00D050B07E02280DD10A68AE7902F114032F
:202DFC00760114329859AB7998F800605B0119FB0600D0505448C27BD0075CD5DAF80000AC
:202E1C00AC7900F108031BFB04F408301A59AB791BFB03F3A2F5A862C250DAF80000AC79E2
:202E3C0000F108031BFB04F41A592B689A600098121A1A610868AC7900F1140364011430E7
:202E5C001A59AB795B0102F5F662C250387904280BD10868AC7900F11403640114301A5990
:202E7C00AB795B0102F56162C2500868AB7900F114025B01D058C5F834016427364A0B685B
:202E9C00106BAE79006803F11C04B8F804304343B3FBF7F7760109FB07F0A0F59660A05104
:202EBC002E480378012B30D10868A97900EB41120120D07230E0042C0BD10868AC7900F103
:202EDC001403640114301A59AB795B0102F56162C25038790A68AC7904280CBF4FF4AA50DB
:202EFC004FF4E66002F1140364011A59101AB8F8042009FB02F2A2F516729042BDD30821AB
:202F1C00284614F087F9012016E0506A0968AA79407801EB4213D872A879DAF800102A6866
:202F3C001BFB00FB01EB0B00506007210C48017028460DF0D3FA0020BDE8F28F780E0020AC
:202F5C00D10F00203C0F0020980C00203C360020980E00209C0E002090930100CC0F0020E5
:202F7C00C80F00202DE9FC47D54C0F460546F80B80F000826078DFF84C83B90F80F0A48154
:202F9C00B90880F09581F90A80F0FF80390B80F0CA80380907D2F80FC0F0228227F080478B
:202FBC000EF040F91CE213F030FD814612F078FC002800F0B280082013F01CFC002840F06E
:202FDC00AC80802013F016FC002840F0A68068460BF0D2FB012803D10098002800F09D8036
:202FFC0094F82902002840F0988000250126E8B213F050F948B1837A3BB1867290F90900F0
:20301C0006FA00F0C0B211F099F86D1C032DEED30320207604F5C07013F0F1FC484614F0C2
:20303C00D5F8D14800252A460168056050F8081CCE4940F8085C04F1540012F051FB4046EF
:20305C000068006B8047A168401A010B206AC1F1FF3282422CBF08444FF0FF30206294F867
:20307C00240020B12069216AB1EBC02F25D912F027FC294600B13146081C1BD0BC4840F69D
:20309C00090101804580417B06F00F0221F00F010A434273017B05F00F0321F00F0143EA0D
:2030BC00010202732946416013F060FA418811F4406FFBD084F8246025620FF0D1FECC485E
:2030DC0029460560022012F089F9022011F05CFC112009F049FE207818B96068483013F0C2
:2030FC00B2FCC448007810B90E2009F03DFE94F8250020B184F82550052011F045FCBE4877
:20311C00E0612576B4F9A800B4F9AA10884214BF022007200CF002FB02E0484614F056F85A
:20313C0027F008073CE720B1042011F02DFC00206070656810F0E6FF38B12846ED696FF459
:20315C00807100224FF00073A847E06858B140460068006B8047E2686168801AC860000B4E
:20317C00C8600026E660A54904F15400002212F0B7FA0221D4F89400217618B104F1D400E7
:20319C0013F073FC27F400670AE713F03EFC064612F086FBD4F88C100028894600F08280D1
:2031BC0000297FD09649042504F154000022257612F096FA304614F009F804F5C07013F034
:2031DC001EFC40460068006B8047E0604FF0010884F80180284611F0EFFBD9F8100060601A
:2031FC00D9F81000416AC90803D3036A29460022984740460EF0F0FA606880F81580606898
:20321C0007F05AFC6568D5F808A040F60A02D01F564600F1010C00E01E46736833B1198894
:20323C008A4203D0884218BF8C45F5D100217160727B08F00F0322F00F0213437373D9F882
:20325C000C201288904224D06046904221D02B8E03B3696305F13002518095F83C0001F06F
:20327C000F0320F00F00034385F83C3095F83D0008F00F0320F00F00034385F83D307260DD
:20329C00707B01F00F0520F00F0045EA0001717300E0E160504613F069F95146404612F0B4
:2032BC009DF802E0304613F091FF27F4806797E005F03CFFD4F8940008B927F002078FE019
:2032DC00302400208C0100104E4A116841F08001116020B1042011F057FB0020607013F052
:2032FC0094FB8246D8F85400016804208847D0B1287DC0B1A068B0B18146D8F800002E69AD
:20331C00006B8047A0EB09002861000B2861B04202D280194008286140F6C41181422CBFC5
:20333C00B0F5967F2961504613F050FF10F0EAFE80B1EE6928466FF4807100224FF000733F
:20335C00B047D4F88C00002808BF47F0020701D00DF068FF2846AD6900214FF080630A4687
:20337C00A84727F000573BE014100440D11F01004035002013F049FBD4F8A46066B306F1A4
:20339C00280106C90A234FF0E0450B40154008BF002B21D106F1280191E8000306F1280544
:2033BC0095E8060006F1280322EA090221EA080183E8060013F00AFFB16879B1B9F1000FA8
:2033DC0008BFB8F1000F09D03069B6F93010B5684B464246A84701E013F0F8FE27F4804710
:2033FC0027B104F1D400394613F03FFBBDE8FC87000004600A920100D1B9000011B10000DF
:20341C009D580100CC2108402DE9F04F0F46780689B027D5DFF8F8231078002113F01AFF51
:20343C0004001FD0DFF8EC0301688847054613F08DF86168884204BF40F2014013F0C2FE20
:20345C0000202072201D09F021FFDFF8CC130A6828469047204610F009FCFF223C2120468C
:20347C0013F0CCFEB80604D50BF06FFC87F02000CAE1F8070CD513F069F830B100218160FD
:20349C00DFF89803006800B1804787F00100BBE1380704D50BF009FE87F00800B4E1F8067E
:2034BC000FD50021002200230691059204910393029101920091022013F080FE87F010006C
:2034DC00A2E1B8070FD500210023069105910491039302910191009101223C2013F06EFE6A
:2034FC0087F0020090E179074FF01E08CC4EDFF834A340F1CF80CC48002200210892079110
:20351C00007813F0A7FE0446C8488178FF2904BF002011F091FCA07A12F076FE05469AF816
:20353C00000095F82E91002805F5947B69D0606D807A022818BF032807D130680D3013F016
:20355C0039FE10B93068C11D07915946484613F02DFEA0B3606D807C3368002818BF012807
:20357C0004D11946584613F01DFE04E05A464946184613F0C3FEFF2843D018FB00F830682D
:20359C00404406225946C01D12F08EFE306810F80810404400F1010BC01D41F0020908906F
:2035BC000622616DC87A00F0010085F82E01606D00F10C0105F5947012F076FE21E059463B
:2035DC00484613F0EBFDE0B130685A46494613F095FEFF2815D018FB00F8306840440D30F8
:2035FC0013F0E8FD58B9306840440D3013F0E2FD002801BF30684044417F012901D149F082
:20361C00020905F12C004B46017806914289120905920122698C0491C088089902914008D2
:20363C000390CDF800B0079801900020A97913F0C5FDD5F89C017E498842A8790CBF002127
:20365C00012113F0A7FD7B49AB790A6830204343134401225A70AB790C68434323449A7082
:20367C00AB790C6843432344DA700C68AA79231D424301249C54AA79096810FB02F0084411
:20369C00002141710122A979072008F052FE87F00400B9E038060FD50021002306910591E0
:2036BC000491039302910191009101223B2013F085FD87F08000A7E0F8045DD55E4930681F
:2036DC000C680D3013F076FD002844D13068C11D0D3013F05BFD3EE0606D4178480704F174
:2036FC003E0526D5287802281EBF03286878012830D16978306804F1380213F0FFFD814626
:20371C00B9F1FF0F15D0306818FB09F948440D3013F050FD68B930684844C11D0D3013F0C7
:20373C0035FD30684844C11D062204F1380012F0BBFD2878022818BF03280BD130680D30AD
:20375C0013F038FD30B93068C11D062204F1300012F0AAFD2468002CBED13848DAF8042003
:20377C0000784FF480510FF0E7FE10B18E2013F009FD87F4805047E0B80505D512F0ECFF4F
:20379C002F4901200860FEE7780504D50DF063F887F4806038E0780405D5812013F0F2FC1E
:2037BC0087F4804030E0B9042DD5264C206810B1002011F041FB4FF0FF3020600020224C4F
:2037DC000CF09EFB216851F8202F684690471F494A6B086BC96A24681D4B01920090029323
:2037FC00ADF810106B461B4A1B491C4803921C4A079225681B4AA8471B49086004F0F8F9E4
:20381C0087F4005000E0002009B0BDE8F08F00BFD50F0020A41C0020A81C0020480F0020E6
:20383C00680F0020880E0020D70F0020780E00204DE50110C83500204C0F0020C70F0020A2
:20385C007C052043380F0020200F00202C1E00204965010059650100AC220020280800209C
:20387C001EFB0080EC0A00201C0F00202DE9F84F0446002000900CB911F0DEFA04F15009EF
:20389C0041F62300D9F8006030800021022071808222707332736946204609F0C3FE08B9E1
:2038BC00072007E2B0602061D9F80400407A0FF055FD253020760021207EB073F173D9F869
:2038DC000400017D022904BF002011F0B5FAD9F80400007D012802D10020307405E08328EA
:2038FC000CBF0620022030742020707404F1240BD9F80400DFF8C0834178480615D5D8F8FD
:20391C003C00416908689BF80510401C01EB4101405A7082607DC10604D5E07F40F040002B
:20393C00E07702E040F04000607506F158050020287104F130009BF81A10890001F004017F
:20395C002971B0664FF01E0A607DC10645D506F130003062D9F8040041788A060BD5617DE1
:20397C0001F0FE016175407810F0030F03D1E07F00F0FE00E077607D13F000FCA075421CD4
:20399C00307CC0F38001002392B200F0030013F0F1FBA0831E23A08BE27D00F5967100F503
:2039BC009B7012FB01F290FBF3F30A320AFB13006283C0B208B1C0F11E008018A18360839D
:2039DC0080B2B168A63001EB800131660220E871E17F41F00801E17713E000273762607DA9
:2039FC0040F001006075D9F804104A78510744BF40F002006075607D13F0C0FBA07537664F
:203A1C00EF71A17D207D61F3050006F18801207508700322607D48708A7006F128079BF81C
:203A3C001A00800000F0040040F0030088709BF81B20D20002F00802104388700020C87072
:203A5C00C6F89000BBF81C00C0F30B00ABF81C00D9F80410CA7D40EA0230ABF81C00002247
:203A7C00617D01F0FE01204613F080FB40F61200B0830021F183D8F834000088800070628A
:203A9C00D8F83400008800281ABF072139703870617DC8064CBF00200220787041F62401C7
:203ABC00E07D7880398100207881618BB06800EB8100B0630221822038757975002194F832
:203ADC00210000F03F00B875F975D9F80400807D012818BF022805D100F07F00401E387692
:203AFC00797606E083280CBF06200220387620207876D8F83C00416908689BF80510401C11
:203B1C0001EB4101405A78830021F166D9F80400417811F0030F1FD013F024FBF066D8F876
:203B3C0018000078C107D8F8181009784CBF1F200F208A07D8F81810097848BF40F02000BE
:203B5C004A07D8F81810097848BF40F040000A0748BF40F08000287600206876D9F80410BF
:203B7C00564A897C01F0030169769BF81A00800000F00400014369769BF81B00C00000F00E
:203B9C00080040F0100001436976107830B141F040016976287E00F0FE002876E07F13F050
:203BBC00EDFA84F82000204613F0D8FAE07FC1063BD5D9F8040094F820204178521C88079E
:203BDC004EBFD21E9BF81F001218387EC0F380010023D2B200F0030013F0CCFAABF8000000
:203BFC00BBF8000000F59671C1F11E0291FBFAF10AFB012A8BF804A0D9F8042051788A070B
:203C1C004CBF00214FF49B710818ABF80000ABF80200BBF800109BF80420B06B5218A632CE
:203C3C0000EB82007067022001E000207067E87604F13000C6F8800006F18400D9F8041009
:203C5C004A78510706D504F138020260687E40F0200006E01A490A6851680160687E00F0E1
:203C7C00DF006876A17F94F8200060F30501A17740F60B00B8840021F984D8F83800008883
:203C9C0080007065D8F83800008800281ABF0721297028700221697094F845006880D9F843
:203CBC0004104878810744BF01206880009807F06BFF0020BDE8F28F90930100880E002067
:203CDC006C0F00202DE9F84F0546DFF80804DFF808640278002A84B048D0052A56D0062AEA
:203CFC0058D0072A18BF082A00F0D1800A2A00F0C381112A40F0E481DFF8E0331878002132
:203D1C0013F0A8FA04001EBF606D407810F00C0F2CD0216DC0064CBF886CC86E062201684B
:203D3C0001F10805A91C684612F0BEFA287800F00F0105291AD16946C0F3801013F036FA5D
:203D5C00002813D03168684613F02CFA0546316804F1380013F026FA85420DD0606D41786E
:203D7C00C80604D440F2014013F02CFAAEE1607B40F002006073A9E133681E20454358191A
:203D9C0006226946C01D12F08FFA9FE1012013F0E1F99BE1DFF84853286813F0D7F90400F5
:203DBC00F7D020790328F4D1207A00F00F01072938D1DFF8300300684169497A4A1E11422A
:203DDC005ED0617A04F10A035A5C02F03F02252A56DBA17A8A09012A52D111F03F0F4FD0E9
:203DFC00007C12F011FAE17ACA074CBF04F1110204F10B028B0748BF921D0B0748BF921CCE
:203E1C00C90648BFD21C1621127852094A43B6498B180A31EB608A5A428699898186DA89B9
:203E3C00C2862DE000F00F00082829D1A17A880926D129B3AB480168087C12F0E5F9E17A4E
:203E5C00074688071CD5062201F001015143601800F10C01684612F027FA207AC009FF28F9
:203E7C000ED0694613F0A2F950B1306800F10D01684613F067F918B90521384613F0CAF917
:203E9C002079032802D0002010F0D6FF14E1DFF85C9299F802000024FF2821D012F0B4F943
:203EBC00804608F16C07786813F050F9029029460279032A01D0080012D002988268137815
:203EDC008DF8003003F0030001909DF80000830604D50124019820B97868EEE00800F9D07D
:203EFC00F4E0557802F1020A2CB31AF8010B804A13680390302098F806E003F10A0C10FB56
:203F1C000EFE01230CF80E30002998F806E0136810FB0EFE9E44039B03F01F038EF81C307B
:203F3C0098F80630126810FB03F01044039AC2F3811242771BD10198032808F2171B1BD06E
:203F5C00B5B1387868B108F1F400017801290FD1604A1178072904D0082904BFC07801281A
:203F7C0006D13D2101208BF801108BF80000ADE060490A78012AFAD098F8940090B32D1F58
:203F9C00EDB29DF8001053462A4640460BF00EFD00281EBF58490878002809D101203D2185
:203FBC008BF800008BF80110306813F0C7F88DE0524801688847064698F80610D9F804204E
:203FDC004FF4D07041435018002280F8412108F59E700168807949080BF0CEFF48490A68D1
:203FFC00304690470298002181600198032819D04448416909788A0709D541690878C107F7
:20401C004CBFE81C28461AF80000387201E0812139722A460198C3B299F80200514605F080
:20403C00D9F921E09AF800001CB11B2804BF022D01251C2803D234490B5C9D4206D08BF8A2
:20405C0002000721404613F0DDF80AE02148017808295146404602D112F0D3FC01E000F02D
:20407C0059F850460EF0D0FA786813F063F80299404613F05BF829E0244C207830B3244D5B
:20409C00286813F063F808B3017903291ED1017A8A0611D5807AE178C0F38112914202BFA8
:2040BC00217900F01F00814206D1A078002801BF607800280121A170286813F03BF805E0C3
:2040DC00002010F0B9FE862013F0BCF805B0BDE8F08F00BFC80F0020680F0020D50F002066
:2040FC00BC0A0020540F0020E0070020780E0020C8350020D20F00204D360020A41C0020ED
:20411C00A81C0020909301001C94010078350020AC0C00202DE9F043044685B0084611F806
:20413C0001CBDFF8A483DFF8A4333022BCF1030F4FF0000904F5A47704F1660504F1F4062F
:20415C0000F0C380BCF1070F00F08081BCF10F0F0CD0BCF1110F00F02481BCF11A0F00F08D
:20417C003681BCF11B0F00F061818EE1707A820703D40F2184F8191159E008784A7800EBCE
:20419C0002233B808878CA7800EB02237B8008794A7900EB0223BB808879CA7900EB0223F3
:2041BC00FB80087A38724A7A887A02EB00237B81C87A0A7B00EB0223BB81487B8A7B00EBA4
:2041DC000223FB81C87B0A7C00EB02233B82487C8A7C00EB02237B82C87C0A7D00EB0223DA
:2041FC00BB82487D897D00EB0122B948FA8201788A0658BF4FF01A0913D504F5AA700490FF
:20421C0079890391387A029021890191F8880090BB887A883988204612F084FFC8B14FF0B3
:20423C001E09707A410706D40F2084F81901204612F074FFF0E04A460F21204612F06AFF2E
:20425C00F8880090BB887A88A17948460EF0E0F8E9E004F1860079888180BA88C280022281
:20427C00F98801810270A0F80290A18EC91DE983628E8188B1EB520F02BFC188A28E9142FF
:20429C0002BF0089E18EB0EB111F1CD0287C012804BF687C0F2809D0687D00281CBF687C42
:2042BC001A2803D00F21A976FE2176E0FC21204612F0A8FFF8880090BB887A883988A079AE
:2042DC0012F024FFAFE0102167E0707AC20709D431781A200129707002D1FF220D213BE0DC
:2042FC000D215AE085F8009085F8069001233371082204F1B00012F005FF0146022204F11D
:20431C00B80012F0FFFE04F1A80801460822404612F0F8FE07460821404612F0EFFE04F156
:20433C009C0804223946404612F0ECFE0421404612F0E4FE04F1A00012F0DCFE04F1980019
:20435C0012F0D4FE6348018841F0800101803078012805D1FF220421204612F0C3FE62E0AE
:20437C006E7C0F2E18BF142E04D00E2E1CBF0C2E1A2E11D12F7C204612F0B0FE0421204646
:20439C0012F040FF012F05D11A2EAE7614BFFD21FB2102E0314600E00421204612F032FF4A
:2043BC0041E00E783E761A2E497879766DD11868A679811D564301F806901968A37912FB41
:2043DC0003F20A4482F80990A179787E56E0A77918680E785743074406F01F0117F8250FC1
:2043FC00B60938B17878F040C00703D594F89601042805D120221A21204612F08BFE12E0B5
:20441C00F970A179186812FB01F28118204681F82760002107F0DEF928B998F800004FF4DB
:20443C00804108F025F94FF0010932E0A179186851430144888908B981F80690A179186840
:20445C0012FB01F2811881F80990ECE709780F2917D01A2919D1A1791868514301441A2048
:20447C0081F80690A1791B6812FB01F2991881F80990F17A01F0FB01F172A1790AF072FF71
:20449C00D1E7717A01F0FD0171720146204612F021FE687C1A2812D1A87C17281CBF10283E
:2044BC00FC280CD12E7C204612F018FE012E03BF1A20A876FB211A21204612F0A3FE484680
:2044DC0005B0BDE8F08300BFC70F0020C8350020200E00209C0F00202DE9FE4F0422FF215F
:2044FC0001A811F0EBFEDFF8541388780024FF2800F0A28111F088FE054605F21710017808
:20451C00012908BF417800F0EB8005F1740005F59276817B022904BF05F174018C7395F82D
:20453C009201022805F1740008BF85F89241017F022904BF05F174010C77F18911B1307BDE
:20455C0008F096F86889BE4F2881FB7997F80AC03A7BF97A787B9C4494448C4405F58D79A2
:20457C000CEB0008B9F804E0B9F800C00EF1010EC444A9F804E0A9F800C0B9F802E097F8FC
:20459C000AC0F444A9F802C0D6F800C0BCF1000F29D0DFF8B0E2DEF800E00EF10E0ACDF85C
:2045BC0000A04FF01C0A95F806B01AFB0BFADDF800B01BF80AA03CF81AB0C3442CF81AB048
:2045DC000EF10E0A95F806B04FF01C0E1EFB0BFB1AF80BA00CEB4A0C97F80AA0BCF84AE0BC
:2045FC00F244ACF84AA0002B08BF0029DFF858A203D1002A08BF00282BD02989E8892C7444
:20461C004118287FA981012804BF688CE883A9790122072007F08DFEA346787878B10121F7
:20463C0005F1740229779078002802BF05F17401887B002803D1087F08B9688CE883307DA3
:20465C00002855D0022804BFF87A00284CD134754EE0A979072007F06CFEEC83B87A40B13A
:20467C00297F2C7401294FF0010B27D1688CE88324E0B9F80600401CA9F806004FF0020B00
:20469C00287CD8B1DAF80010AB7995F82EC001F114026969490040F6C4105B0110FB0C119F
:2046BC0001F5F661D150A879DAF8001001EB4010C17C01F0F00141F00401C174A8892989C4
:2046DC00814206D08842A8D2081A41F2AB029042A3DA287C08B1052901D0082100E03E21CC
:2046FC00284612F097FDA7E0787A08B102213175F87BC1070DD529683869C86000F5907033
:20471C00C860AA79DAF8000000F1140152018C5013E0DAF80010AB7901F114025B01D058A6
:20473C0030614848AB7901681C2001F1080243432968D058C860EC832C77444A506900783F
:20475C00810702D5B87B802800D1812005F174063070284612F06DF9284608F0F3FD02282B
:20477C001BD1F079022805DB01AA394928460CF0D3FF0446284612F0A9FC01285CD0200081
:20479C000DD0224601A928460DF064FB38B9284608F0D8FD012802D14EE001284CD0012187
:2047BC00284612F08FFC284612F088FCFEF76AF9012841D028460CF0F3F800F00FFD254F97
:2047DC00B988386810B1AA79914203D04FF6FD70814231D12049087B11F0F0FE04002BD001
:2047FC0084F800B0A8791D4960800A68A879115C217105F5C9721079607196F90010A17138
:20481C00A4F80880B9F80200608111F09FFE050005D1FF204FF0FF312073216109E028781F
:20483C00207312F047FC0146A86812F03FFC80082061204639688847BDE8F78F780E002040
:20485C00980C0020980E00209C0E002090930100C41F0020800E0020BC220020DC350020E4
:20487C00DFF874030278112A00D070472DE9F84FDFF868231078002112F0ECFC04000AD161
:20489C00002010F0D9FA002010F0D6FABDE8F24FFF2012F0D7BC04F14C0999F8000008B9E3
:2048BC000121E172401CD9F8083089F800005978CA0642D4E27DD9F80460C7B297423DD2D5
:2048DC00C0B2012808BF032A0DD112F0F3FB217E00F001004118491CC8B22828B17319DB2F
:2048FC00C91EB17316E05A7AB07B277E0121A0F1250301FA03F3A7F125008140194322EA45
:20491C00010101F0070141F02401B173242904BF2720B073B068A18B00EB8100B060607DEF
:20493C00C1060AD5628B99F80010A08B00FB1121B068A63100EB810030664BE104F128078E
:20495C0006F1900806F173054FF0000A50D1A17F6975E07FA875D9F808205278930710D517
:20497C00E27FD30604D5C91E697500F0EF00A875C6F874A085F800A00022A97D01F0FE0120
:20499C0023E1910608D4F88B00B1F87E2876F88B00B1386AC8F80000D9F808004178CA0743
:2049BC000DD5F88B00281CBF386A002807D0C8F80000B97EF88B814238BF08462876E07F53
:2049DC00C1060CD5B06B397800EB8100B063A18CA63100EB810070670220287003E0C6F826
:2049FC0074A085F800A00022E17F01F0FC01ECE0CB071ED5687D811E697501F03F01A87DB1
:204A1C0000F0F700A8758207697504D4891D697540F00200A875A87D410605D56A7D511EC8
:204A3C00697500F0BF00A875C8F800A085F818A0D0E0801AC0B20090880740F18380009874
:204A5C00012806F1400B3FD1B06BA18C00EB8100B063A07F00F03F00A0776875E17FA97538
:204A7C00D9F8082053785A0704D5801F687501F0FD01A9750023687DF97E00F03F0042188B
:204A9C009BF80000521CC0F3800192B200F0030012F070FB00F59B70A0841E21A08C90FB07
:204ABC00F1F18AB2A97D01F0FE01204612F05EFB85F800A0F88B00B1F87E2876F88B00B14C
:204ADC00386AC8F8000085E00228B06BA18C00EB8100B06326D1E07FC10706D5687D811F84
:204AFC006975A87D00F0FE00A8750023687DF97E00F03F0042189BF80000521CC0F380014F
:204B1C0092B200F0030012F035FB00F59B70A0840022A97D01F0FE01204612F027FB787F33
:204B3C00ABF81A00797F0098491C081AC0B201281CDDA28CB16BA63201EB82017167022165
:204B5C00297014E0B06BA18C00EB8100B063797F0098081AE17FCA06C0B207D5A28CB16B6B
:204B7C00A63201EB820171670221297090B3D8F8003097F81BC0E27FA17F6344C8F8003079
:204B9C0022F00108D9F808205278530748BF28F00208920748BF28F00808012807D1387F18
:204BBC002876C6F874A028F0100885F800A001F0C006404612F0E2FA00F03F003043687582
:204BDC0085F81680002208F0FC012046BDE8F84F12F0CCBABDE8F18FC80F0020D50F002095
:204BFC002DE9F8439D4C9E499E4E20700A22002008600D239C484FF4057102704380818045
:204C1C0084B09A4A9A48106037789A480770FF2F7178417008BFFF29B2788270F378C37095
:204C3C00357905717679467114D1FF2A08BFFF2B10D1FF2D08BFFF2E0CD18F490A780270E5
:204C5C004B7843708A788270CB78C3700A7902714979417189490278894D8A4E8A4F0A70A1
:204C7C0043784B7082788A70C378CB7002790A714079864A4871FF2028706870A870E87001
:204C9C0028716871002082490880F06B8149407808708149F06B0078087013887F4880497E
:204CBC000380F06BC06C08607E49F06B90F83C0008707D49F06B90F83D000870F06B4069A6
:204CDC0001797A484A1E0270F06B7949C0783870F06B8069086008B910F0AEF8F06B754979
:204CFC00C069086008B910F0A7F8F06B416D72480C2211F0D9FA12F0D5F9F06B6F49006A95
:204D1C00086008B910F098F8F06BDFF8B481406AC8F8000008B910F08FF8F06B6949806AAE
:204D3C00086008B910F088F8F06B6749C06D00283CD001220A75F06BC06D02681378C3F36D
:204D5C00400028B1C3F3C00000280CBF01200220487500208860C8600861F06BC06D4268EA
:204D7C0090780870F06BC06D4268D0784870F06BC06D426813788B70F06BC06D42685078B3
:204D9C00C870F06BC06D426810790871F06BC06D426850794871F06BC06D426890798871A3
:204DBC00F06BC06D4268D079C87101E000220A7500F0B8FD07280AD105F0D4FC20784FF452
:204DDC00804107F055FC002010F036F843E03F480168884781460BF029FCD8F8000001685E
:204DFC008847684611F0FAFBD8F8002004208DF80000694652F8043F00209847344908606B
:204E1C000DF0C6FDF068334A01883878324B014311804846196888470C21304811F00DFEC7
:204E3C00284612F03BF912F035F92D4800214FF6FF7201608280F06B90F8581029480068AF
:204E5C0011F054FB0121FF2011F0F1FD20784FF4005107F00DFC05B0BDE8F083C70F0020C7
:204E7C00380F0020D04F0050700E00203C0F0020B63F0050400E0020E8120050500E0020BC
:204E9C00480E002090930100C40F00209A2200209E0F0020C60F0020D40F00203A36002038
:204EBC00D03500204B3600204C360020CB0F0020200F0020240F002084350020280F0020A2
:204EDC002C0F0020300F0020E0340020A41C0020D4350020A00F0020A81C0020FC0D0020E3
:204EFC00800E0020E43500202DE9F84F05004AD0AA480078092818BF0A2804D00B281CBFAD
:204F1C000C280D2801D1212046E1A878002112F0A1F9040008BF4220F6D0A14EA9789F4A09
:204F3C003170107810B9A8789E49087004F14807F868417801F01201022902BF786900288E
:204F5C000C2012D0607AF0B1A07B012804D1B5F8030008B1812816DA6878402813DA2046F6
:204F7C0012F094F8B86808B9072015E1BD61287801281BD1A07B00281CBF0128042815D15D
:204F9C008948007808B9122006E188494A78824208BF0920F8D004F1220004F13801427FBD
:204FBC00802005F04FFB08B10B20F5E0687808B91120F1E02878DFF8F881DFF8F8B1DFF853
:204FDC00F8A1012840F09380207A0021012821734FF00A0911D19AF8000040210FF0E6F834
:204FFC00B5F8030009FB00F1402012F04BF80100DFD1B96968794871CDE001202072E1722B
:20501C00617308F0E7F86060DBF8000080476B4A0146106802E06268426000680028FAD152
:20503C000846D8F8001088476168654848610021307811F0FCFC31780122112007F079F910
:20505C00F8684178C80605D5204601F0FBF801000BD0A1E0002060840DF082FA84F82100B2
:20507C002046FEF703FC0100F3D1F8684178C8071CD504F14206B18800291CBF38680028DA
:20509C0014D032788A4211D20F2011F0F7FF68B1F86801788DF80010B088ADF801000F20FD
:2050BC0031788DF80310694611F0E4FF3B4E3078002870D14349087800281EBFF86841783C
:2050DC0011F0030F03D04048006811F0CFFF1120307001212172B5F8030009FB00F1402084
:2050FC0011F0D0FF010057D100F078F853E0207A002851D0DBF80000804705463078012176
:20511C0011F095FC9AF8000040210FF04FF800202E4920720A68367811460B68187A0028DB
:20513C0002BF586D0378B3421ED089689142F4D111F048FB012824D111F008FA61688842EE
:20515C001FD10FF0F1FB40F2014012F03BF820492048086001219AF8000007F089FAD8F879
:20517C0000102846884716E01B4E30780128DFDD08460FF0C1FB11F019FA3078411E317015
:20519C00D6E7204611F06EFFD8F800102846884720460EF06BFD0020BDE8F28FC80F00203C
:2051BC00D60F0020D50F0020D40F0020780E0020A81C0020A41C0020C70F00204C0F0020EC
:2051DC00C9700000880E00206C0F0020D8350020480F0020DD5D00004A3600202DE9FE4F48
:2051FC009D4E75681DB9BDE8F74F11F037BF2878DFF868829A4FDFF86C9201281CBF0228C6
:20521C00042805D0402818BF802800F08D801BE111F0D8FA0028FAD0287805F0F1F8824686
:20523C0011F018FF044699F80100002853D000F0EBFE10F0E9FF0546286800900146D1F8D7
:20525C0004B0A4B1504607F0A7FB02280FD09AF800100129DBD128B911F02CFF00F5E8503F
:20527C004C30A0600120B070112139705AE00098017880290CD108207B4938700A78DBF8C0
:20529C001400012A1ABFD8F82410097801211CE007203870A87911F031F90446207BC1076F
:2052BC000AD5A87910F0B0FF052111F0B3FF207B00F0FE002073CCE06B480178DBF814006F
:2052DC0001291CBFD8F824104978C172A87989F802000098B4E0BAF1000F98D09AF8000031
:2052FC00554507D1012801D1E4B9B2E000200FF0A3FD17E001288AD1002CF6D011F0DAFEF1
:20531C000146A06801F5C241A83110F059FA28B911F0D0FE00F5E8504C30A06011203870CB
:20533C000121B17050468BE099F80100002841F64C5B6CD000F068FE10F066FF04462068AC
:20535C000190D0F804A099F8020010F05DFF02902878402811D1A07911F0D0F80546287BF9
:20537C00C1070AD5A07910F04FFF052111F052FF287B00F0FE0028736BE011F01DFA10F0FC
:20539C00070F1FD0B07805F03BF8009011F062FE050017D00199009807F0FEFA022811D093
:2053BC0000990A78012A0AD118B911F083FE5844A8601120387001210098B17040E00020C5
:2053DC000FF03AFD0298A0421FD0019926480A78802A0BD10821397000780128DAF81400A7
:2053FC001ABFD8F82410097801210AE007223A7000780128DAF814000EBF0121D8F82410DA
:20541C004978C172A07989F80200019818E011F0D3F910F0070F1CD0B07804F0F1FF054629
:20543C0011F018FE04462878012812D18CB111F041FE5844A060012111203870B1702846A0
:20545C00BDE8FE4F06F03EBABDE8FE4F00200FF0F3BCBDE8F78F00BF90350020909301009D
:20547C00C80F0020780E0020CC0F00202DE9F04F0746F88916468A46ADF1440DC01D80B22B
:20549C0005460BF057FA8F4CFF280BD1284605F049F8854204DD641C207800B905200EE14A
:2054BC00012000E000206178D9B916B1022E18D1B8B1387AFE88BD888DF82C000023009317
:2054DC0009AAADF82A60E18E94F83300ADF82850032305F013FF9DF834003874BDF830609C
:2054FC00BE81BD8955B3FE8946B3AD1B4FF000091FFA85F84D463A7C761B202ED4BFB6B2BA
:20551C002026E06808EB050189B2334601EB423101AA11F0E3F90AEB050101A832460FF032
:20553C00EDFF58B9AD19FE89ADB2AE42E3DCB9F1010F1CBF4846B88140F0BA8094F8331062
:20555C00E58EE06801AA04238846490311F0C6F9019800F0FF007E2806D140467C210FF0A1
:20557C0083F9019800F0FF007C2840F0A580F88942F20102C11D8EB2A9198A4240F39A8061
:20559C00F9883A7AC1F301238DF83910B98843EA82038DF838308A1007468DF83A20042347
:2055BC00C0F3851201F0030142EA81128DF83B2010FB03F1FA1D01F0FC017B1990B28DF892
:2055DC003C101FFA83FB0D282BDB50463946002211F0CEF8024605210EA811F0C9F89DF818
:2055FC003C103B4600F03F07524641EAA011B8008DF83C1040F0020096278DF83D0029466F
:20561C008DF83E7040460DF04FFC074659460EAA0723404667700DF047FC384360704DD199
:20563C0035E004F1240051463A4608F073FF0EA90A68381900F124094846097902607B1DFD
:20565C000171002204F1240099B211F091F89DF83C10962300F03F078DF83E3041EAA0110D
:20567C00B8008DF83C10334640F002000EAF49468DF83D003A68B8790A60BA8888714046CE
:20569C008A8004F1240229460DF00EFC6070E18EAD194FEA8807AAB28919E18607EBC80166
:2056BC000919A1F84C2048B1404659460DF0AAFA607803E0052000E001206070C0B211B004
:2056DC00BDE8F08FCC1D00202DE9F0470D4629048F4EDFF8408240F1F1808F4F38780AF014
:2056FC00DDFF040018D021780120B02917D0B12908D0C22900F0B580D02904BF2046FCF775
:20571C002BF8D1E0207920B92289E1886088FBF78CFB204610F0B0F985F40040F5E021797B
:20573C00387A012910D009294DD01E2900F08D807D2908BF002806D16088FBF79AFF0146D8
:20575C006088FBF753FF86E00028FCD1207AB4F80290082835D14846FBF78BFF02280FD085
:20577C0003282ED1002204214846FBF753FE0246B86900281CBF4368002B22D004211EE074
:20579C00002210214846FBF745FE8246484611F0B1FD60B198F8001039B9811D40790122B5
:2057BC0000F0010011F052FC01E001203070B86900281CBF4368002B03D0524605214846D2
:2057DC009847608805E0002845D1617860881A2902D1FBF7EAFE3EE0FBF74BFF022819D0A5
:2057FC00032838D120896688012804BF6089032806D1E068827804213046FBF70BFE00E033
:20581C001820B96900291CBF4B68002B23D00246042117E0218966880120012904BF618949
:20583C00032907D1E268917821B9012210213046FBF7F0FDB96900291CBF4B68002B0AD094
:20585C00024605213046984705E0787A18B9608800210AF025FA217904F1080011F062FDA8
:20587C0057E7A07810BB012139742022E11C07F1880010F019FD202204F1230107F1A8004C
:20589C0010F012FD202204F1430107F1C80010F00BFDB86900281CBF4368002B06D06278F0
:2058BC0006210020984701E00028D9D11B480078FF2802D0214603F079FB2DE7690716D5E2
:2058DC00174A106880B1FBF7DEFE04000CD0E07A50B90121E1726268A17A2089FBF7E3FCBD
:2058FC00606808B110F062FE85F004000DE028070AD53178012902BF98F80000002808F0F3
:20591C009FF985F0080000E00020BDE8F08700BF50360020AA0F0020FC1A00201E24002064
:20593C00EC35002038B57A4D687910F037FE7949002808606ED00022026002730868C26124
:20595C000262A87910F02AFE73490028086061D000220260C27200200A681074052308689B
:20597C004374002209684A61E87A10F017FE6B49002808604ED06A4C21782878C91C10FB5E
:20599C0001F080B210F00AFE66490028886041D02078002873D0698811FB00F080B210F0CE
:2059BC00FDFD614A0028506034D060482278017811FB02F080B210F0F1FD5D49002808603B
:2059DC0028D000250AE0E8B210F098FD00214180816001800223037101736D1C2078E9B268
:2059FC008142F0D310F0DAFD52490028086011D02078400010F0D2FD4F490028086009D07A
:205A1C0020781C2110FB01F080B210F0C7FD4B4A0028106075D02078400110F0BFFD48490B
:205A3C00002808606DD02078000110F0B7FD45490028086065D02078000110F0AFFD42490D
:205A5C00002808605DD02078302510FB05F080B210F0A4FD3D490028086052D0207810FBD2
:205A7C0005F080B210F09AFD39490028086048D0207810F093FD37490028086041D0364C57
:205A9C00364D2178287800EB4100C000103080B210F084FD32490028086032D000F1080148
:205ABC0041602878227800EB4200C000103080B210F074FD2B49086018B300F108014160DD
:205ADC001E212078401C10FB01F080B210F066FD254A1060A8B1082010F060FD234C20603A
:205AFC0078B1062010F05AFD216808602168086838B100204860062010F050FD1C49086009
:205B1C0008B9072032BD10F08EFF00B1002032BDBC220020500F0020540F0020440F0020D2
:205B3C00D40F002090350020780E00201C240020CC350020340F0020C4350020980E0020F8
:205B5C009C0E0020A00E0020A40E0020A80E0020C8350020DC3500204C3600204B36002058
:205B7C006C0F0020700F0020680F0020E4350020400F0020F8B5144600254FF480678D4E5F
:205B9C00C21B84B006F188032CD0921E31D0521E37D0521E3CD0521E41D0521E45D0521E40
:205BBC0062D0921E65D0D21E00F09680521E00F0A180921E00F0AA80521E65D0521E00F06C
:205BDC00AC80521E00F0BA80521E00F0BD80521E32D0521E41D0D21E00F0C880921E00F08B
:205BFC00CC80DAE0012905D12078022802DC7070DDE0012940F0CF8020780128FADCB070E6
:205C1C00D5E0012969D1207805286EDAF070CEE0012962D1207801285FDC3073C7E0102958
:205C3C005BD110222146644814E0012955D12078012852DC3071BAE001294ED1207801285F
:205C5C004BDC00287071F6D001203074602206F12801184610F028FBA9E001293DD12078F1
:205C7C0001283ADCB072A2E0012936D1207870739DE0002931D111F009FB10B9FBF723FAF4
:205C9C001DE00120F07492E0072926D10622611C02A810F005F900950023217801AA02A8DA
:205CBC0007F008FCB0B9B07A10B911F0EFFA10B1B07A012808D19DF80400FBF715FA0546B5
:205CDC0050200FF02DFE1EE0316A9DF80420012088546CE034256AE001295CD1F17B207875
:205CFC00022903D0C11F0A2902D354E0102852D1B0735CE001294ED1B17C2078B074002959
:205D1C0008BF012853D1FBF78AF950E0012942D1207803283FDC707449E001293BD12078B8
:205D3C00022838DC002836D0F073022803BF1020B0730120002011F085F938E001292AD13C
:205D5C0020780FF019FF32E0707920BB602907D10CB360222146184610F0A6FA012003E097
:205D7C00012918D1BCB12078307420E0012912D18CB120781149087019E061B911F086FA03
:205D9C0030B9FBF744FA054650200FF0C9FD0EE0012030750BE0182509E00F2806DA022947
:205DBC0004D121880DF08EFC054600E00225284605B0F0BDFC1A0020AC3300204F360020C6
:205DDC002DE9F84FDFF8249299F80000002111F041FA040004F1500602D10FF02DF8F6E0B3
:205DFC00207A30B9204611F03DF920460DF03EFF1AE0217B7E4F491C217330694079B8B1B0
:205E1C00C9B2814214D1387840210EF0CFF900202072204611F026F920460DF027FFFF228A
:205E3C004321204611F0EAF9BDE8F14FFFF7D6B904F14508002088F807000B2510F053FDC5
:205E5C007168D1F80320D4F810E022F07F4240F6C41303FB02EE90FBF5F50B2202FB150023
:205E7C00D6F800C080B24FF47A6148431EFA80F0CCF808003368986820615E4801780229E3
:205E9C000BDB5D480068816800680A68006911690FF096FC08B10BF00FFC70684178CA069C
:205EBC0004F1220518D5A07B012809D100212172204611F0D7F83878022106F0D9FB71E0C7
:205EDC00306890F8631001F0E00141F0860180F863104A49416665E0376807F1020B00215A
:205EFC00ABF80010407A0DF039FA25302076207E8BF80C00617DC80605D5618BB868A63168
:205F1C0000EB8100386607F1730A207D8AF815000020617D8AF816108AF81800C7F8900023
:205F3C002888401C288080B20CF01AFB84F821000022617D01F0FE01204611F017F900202A
:205F5C00ABF81C00E17DABF82810ABF8300007F13E0094F8211001F03F010170628BB968B7
:205F7C0001EB8201B9630021018298F80020828371684A78910709D5AA886A80A17F01F0E3
:205F9C003F0141F08001A17701218183E07FC10608D56988B86BA63100EB81007867022159
:205FBC008AF80010164A107888B1287F022818BF03280CD1134F38680D3011F0FBF830B946
:205FDC003868C11D062204F1300010F06DF9FFF705F94CB17068017E480605D54946BDE8D0
:205FFC00F44F032011F046B8BDE8F18FD50F0020C70F00204A360020D835002000204E00C6
:20601C00880E0020680F00202DE9FE4F884C617811B900200EF010FF11F04CF806464FF040
:20603C00000806F6C4160027824DDFF80C9211E0384610F0E9F8417951B12A68817902F869
:20605C00081008F101015FFA81F8314610F0F6FF7F1CFFB299F800008742E9DB61788845C3
:20607C0005D000200EF0E8FE822011F0EBF8607801281ED1002701E07F1CFFB299F80000D0
:20609C00874210DA384610F0BFF8064670790028F2D02968B0790A7890421CBF00200EF0D6
:2060BC00CBFEB079C2E000200EF0C6FE822011F0C9F8617828680AF055FF2868007810F02B
:2060DC00A3F800260068D0F804A04FF0010902E03E4609F10109771CC1450BDA286810F846
:2060FC00090010F091F800684068DAF8081082689142EDD0F6B2002E1CBFF8B2002803D127
:20611C00286890F800B019E0286890F800B001224FF4D0710FE0636803F5B176835C11FB6F
:20613C0003F901FB0BFE36F809C036F80E60B44538BF9B46521CFBB29A42ECDB4FF6FF706C
:20615C0010F078FF0646584610F05EF83B490068D0F804A00868D94630F8192060684FF419
:20617C00D07300F10E0103FB09F3C85AB2EBD00F55D2720840F6C410424300920027304AC5
:20619C000190029218E0584610F03EF801680A78802A03D1DAF81410009A4A6101680B7862
:2061BC00402B08D1029980790A6802EB4011009800F5A060C8617F1C474530DA2868C05DA7
:2061DC008345F8D001464FF4D073594363685A1803F5B173D289595A53088B4202D2521ADB
:2061FC009045E8DA10F010F800684268DAF808009168019B06EBD6725208A1F6C41103FB66
:20621C0002000FF0DDFA0028BDD00C48006830F81910491C20F81910286810F807B0074884
:20623C00026800215B4622F813105846BDE8FE8F780E0020340F0020D40F0020C4350020E4
:20625C009C0E00202DE9FC470546002000900DB90EF0F2FD05F1500A6946DAF800602846B2
:20627C0007F0E0F908B90720EBE00024DFF8D881DFF8D891DAF804104A7A18206043012342
:20629C003718A3401A4209D0A97B39F811003880002118F80420BA73F97302E040F6010056
:2062BC0038800021798007F118007860387B00F0EF00387340F080003873A97B01290ED143
:2062DC0041F28830B860397B01F0F00141F005013973787B00F0F00040F0020017E0002CFE
:2062FC000CBF0221002100F0F0000843387324B910F0E0FE00F57A6000E00020B860022CCD
:20631C00797B0CBF0120022001F0F00108437873641C06F14800386106F16801032C796186
:20633C00A8DBA87B0024012805D1766310F0C2FE00F57A6001E0B0687463286110F012FFA6
:20635C00B064434881690978CA07816909784CBF1F220F228B078169097848BF42F0200206
:20637C004B078169087848BF42F04002010706F14C0148BF42F080020A704C70DAF8042097
:20639C00907C00F0030005F13E024870137863F38200487052788C7062F3C3004870CC7007
:2063BC0040F010004870346505F13800F0657465A87B012818BF042819D0DAF8080038B1D9
:2063DC00B0F803008870DAF80820D2F805003065DAF80C0038B1B0F80300C870DAF80C20F8
:2063FC00D2F8050070651B4802685068F06505F13000B065184AC87D184B00F0EF00C875A2
:20641C0040F08000C87500F0F00040F00600C8757266187838B148780A7840F0400002F02B
:20643C00FE0248700A700E4A937848785A064CBF40F0200000F0DF004870009805F0A4FB7D
:20645C000020BDE8F68700BF506E0210F46B0210909301006C0F002000204E00880E0020FB
:20647C00C00C00202DE9F04380490468804E824D0A68607D8846ADF1140D401E0B2800F29A
:20649C008A80DFE800F09906097B6009350C14D11A142169886804E02069816809E02169FC
:2064BC00C86809680DF0CEF80DF028FFDBE02069C168022200200A70D5E02169487C0128E1
:2064DC000FD0C86809680DF0BDF8054620690168C0684A6A406800218018401C09F05FFC44
:2064FC0004E0C86809680FF057FC0546284642E020694FF080590168D9F80072CA68786D6A
:20651C0000920A6901924A6A5A4F02928B684A68844630463946E047002809F5007118BFDD
:20653C006FF0050040F09F80206902680C689168206A0091D1680191516A0291CDF80C80A7
:20655C0053683A467DE02169087B01280FD0886809680DF077F805462069016880684A6ACC
:20657C00406800218018401C09F019FC04E0886809680FF011FC0546284695E7206941687C
:20659C004968CA7F12F0070F05D1097831F07F0701D1C90902D24FF0FF3064E04FF080598D
:2065BC000368D9F80002596AC06D0091CDF804805A68996A9B6845E04FF080592169D9F857
:2065DC00002248680968526C4068496A904709F50076002818BF6FF0040044D1216930685F
:2065FC000A68C06A1169526A0346284698473068406A80470828FAD03068406880470628DF
:20661C0018BF6FF003002ED12069036837689968386A0091D9680191596A0291CDF80C80E5
:20663C00DA6A996A5B680DE020694FF080590168D9F800724A6AF86D0092CDF804808B6813
:20665C004A68314604462846A047D9F8B001006A014613208847D9F8B001006901461320BC
:20667C0088476FF01F0005B0BDE8F0832036002060620240C0620240006202402DE9F04F0D
:20669C00824C4FF0FF0A00254FF0100BADF1240D84F834A004F1300984F832A065E00C203D
:2066BC0015FB0096E068690306AA042310F016F906F116079DF818009DF819303870069899
:2066DC00F375C0F38541032903D09621B1EB106F38D1C0F30140F8703878FF2830D0FE288A
:2066FC002ED07E282CD007A80DF02AFAE06869034FF088524FF4005310F0F0F864484FF4D4
:20671C00005650F8041D361FB6B2B1F1FF3F06F1885201D1032EF4D810684FF0010841461A
:20673C0000F0FF03FF2B18BF8846491C000A0529F6DB106007980FF05FFB4644FE8001E0BD
:20675C00A7F806B038787C280BD0782809D0702804D0FE2808BF84F8325004E084F83450E5
:20677C0001E084F833506D1CEDB2E078A84296DC94F83310FF2920D194F83420FF2A15D16A
:20679C0094F832200025FF2A18D0521C92FBF0F14143521A91B28A0002EBC1024A44978BD0
:2067BC00002F08BF84F832A003D00A4684F833200225214691F8331000E00125FF2910D11E
:2067DC00002684F83360304606F00EFA6178084360707E2130460EF047F82146E07891F866
:2067FC00331094F83220FF2A14D1491C91FBF0F24243891AC8B284F8320006F0F5F961786E
:20681C000843607094F83200FE210EF02DF8204690F8331084F8311094F8332010462F46A9
:20683C00810001EBC0014944898BA570781EE18602D0401E23D025E0172923D91046C91FB9
:20685C0001AA89B207F07CFD9DF80F00C00816D300200090BDF81220E18E94F83300032386
:20687C00891AC91F01AA89B204F048FD50B9BDF8101039B19DF814000CF0C4F902E0002026
:20689C0003F050FE09B0BDE8F08FC046CC1D0020002000112DE9FE4F9B4615468946824648
:2068BC0010F0B3F87B49019008680CAF504508BF48687B4C6FF0010828B1B0300FF0C6FDDB
:2068DC00002840F0D6800EF077FD061C00F0DB8004F5C07010F093F80023B4F9A800C6F825
:2068FC000C90401C86F832306FF31F30A4F8A800C6F808B0B4F8A80030866748C6F810A012
:20691C0097E80C0020210027B8461940104006F1180383E80300424686F8332006F12003CE
