:20000000003C012079F4000039FB021039FB021039FB021039FB021039FB021039FB021072
:1C00200039FB021039FB021039FB021039FB021039FB021039FB021011FB021002
:20003C002DE9F84F012011F01FFB012816D1DFF860663078002114F03BF8040004BF002077
:20005C0011F048FF00202072201D0AF0BBFD14F02BF8050003D1812014F022F813E30120C5
:20007C00687105F59777DFF82C06DFF82C264178491C4170A879A0724020317811700AF0CB
:20009C0045FD2860616D4A78206DD10619D5816C0A681179032904D00CBF0120002011F0A2
:2000BC0019FF206D816C90F86C000A6802F1080A01281CBF002011F00DFF216D486F296820
:2000DC003CE0C16E0A681179032904D00CBF0120002011F0FFFE206DC16E90F898000A6865
:2000FC0002F1080A01281CBF002011F0F3FE216DDFF8A825D1F8A0002968DFF8A435C860C5
:20011C009AF82660032E19D8DFE806F002050C0F00F5B06001E000F53470C8601088F887EC
:20013C00118808E000F5355001E000F6B870C8601888F8871988A5F8741102E000F5B060B8
:20015C00C8602868DFF85C65C168DFF85C8501F59071C16006229AF80000C0F38010387095
:20017C000AF1020105F5947012F0F4FF04220AF10E0105F1240012F0EDFF306895F806907F
:20019C0000F10C0304220AF10E0103EB491012F0E1FF3068AB7900EB431303220AF11201BA
:2001BC0003F1100012F0D6FF05F12C099AF8150089F8020002220AF1160105F1300012F095
:2001DC00C9FF02220AF1180105F1320012F0C2FF02220AF11A0105F1340012F0BBFFB9F847
:2001FC000800688402220AF11C0105F1360012F0B1FF99F80200B9F80A10400089F80200B4
:20021C000901B9F80400A9F80A104000A9F8040089B2B9F806004000A9F8060003046A8C8D
:20023C00521CDB0B5A438A4201D280B230B998F80000802109F0DCFF3B2131E105F12E015F
:20025C00284613F029FF0520A881284613F020FF05220AF11E0105F1610012F07BFF9AF865
:20027C002300400989F8000013F00EFF6882618D401AB88105F161019AF82300DFF82C7476
:20029C0000F01F0089F80F004FF01C0A284613F0F7FE616D4A78206DD1064CBF816CC16EBD
:2002BC0041F62102086800210171A97938681AFB01F142520021AB791AFB03F303445980F8
:2002DC00AA791AFB02F210444160616DDFF8E0034A78D1060DD5DFF8DC138A7851060AD5E0
:2002FC00DFF8D423138841F20A418B4208BFDFF8CC03C5F89C01D5F89C11284688473A680E
:20031C00A97902F10E031AFB01F15854AA7938681AFB02F202440020D0733968A87901F1BF
:20033C000E021AFB00F0115C89F80D10606D4178CA061DD595F8960108B911F0CBFDA97969
:20035C0038681AFB01F1014495F89601421E0A74A87939681AFB00F00844002141743A6808
:20037C00A97902F112001AFB01F1002242522BE0A97938681AFB01F10144206D90F84020EF
:20039C000A74A87939681AFB00F00844216D91F841204274206D3968AB79403001F11202BA
:2003BC001AFB03F34188D15205F5CB710078012200F0030082400A70226D92F84000800849
:2003DC0014BF0120022008713968A879DFF8F0B201F1140231681AFB00F301EB4010D05032
:2003FC00A87939681AFB00F00844B6498161DBF814000078C107DBF8141009784CBF1F2004
:20041C000F208A07DBF81410097848BF40F020004A07DBF81410097848BF40F040000A07E0
:20043C003168AA7901EB421348BF40F080001872A979306800EB41120B2050723168AA79C1
:20045C0001EB42100421A04A81721078012806D13168A87901EB40120121D17207E0DBF8A1
:20047C0024003168AA79407801EB4213D8723168A87901EB40121F2111763068AA7900EBD8
:20049C00421100204876A87913F0F6FDAA79316852018850AA7931685201885820B9072121
:2004BC00284613F0E5FDEEE08848AA79016801EB021013F0D9FDA8793168844B01EB401205
:2004DC00196801EB00105060A979306800EB41125168C9F83C10AA7952018158C9F84410B1
:2004FC00042198F8000009F083FE616D4A783868D10648BF02210AD4A9791AFB01F1014434
:20051C000A7C02F00302022A14BF04210621B9F8042095F806C04FF4C8738A18698AAA61B1
:20053C005143B1FBF3F35B1C6B611AFB0CFCD5F800E06044DEF80CC040F6C41101FB02C25B
:20055C00D21AA2F5A8628260AA7938681AFB02F283189A682B689A6000F10C03AA791AFBE2
:20057C0002F20C309B5C03F0EF038354A8793A681AFB00F002F10C030C321B5C03F07F0388
:20059C001354A8793A681AFB00F002F10C030C321B5C03F0F00343F002031354AB79386810
:2005BC001AFB03F31844427B02F0F00242F001024273AA7938682B681AFB02F20244906890
:2005DC0018613068AB7999F802C000F11402686940005B0111FB0C0000F5F660D05095F8F3
:2005FC00960104280DD13068AA7900F114034FEA421C143053F80C20AB795B0102F56162EF
:20061C00C2503068AA7900EB4210C37C03F0F00343F00403C374DBF830003268AB790068F5
:20063C0002EB431CB9F8062042436423B2FBF3F35943A1F59661CCF81C103068A97900EB1E
:20065C004110C27E02F0F00242F00402C276A97938682A681AFB01FA00EB0A015160284620
:20067C000E2113F0FDFC1A4907200870204610F0EBFBAA790021204613F0EEFC2868154960
:20069C00154A41618261BDE8F14F02F089BB00BFD50F0020780E0020D70F00208E0F002013
:2006BC00900F00209C0E0020C70F0020980E002081010210C00C00209A0F00204DE501104D
:2006DC00B4610100980C0020CC0F0020A40E0020C80F00202D0A0100020480802DE9F84FC5
:2006FC00DFF8B054A9780024FF2904BF002011F0F1FBA87812F0CAFC054605F1680605F535
:20071C00C9773168086805F1900808B1EC8311E0B07B002804BFB07E00280BD198F80010E5
:20073C00002904BF3878002804D1287F012804BF688CE8832989E88B4118491C69812846D7
:20075C0013F086FC01281EBFDFF84C040178012903D12989EC83491C69814FF6FF79B07EF9
:20077C0001280DD1B28B6989288913F06DFC38B1298968894A1C93B298422FD0B08B23E0BC
:20079C0098F8000001280FD1B8F802206989288913F05AFC40B1298968894A1C93B29842BD
:2007BC001CD0B8F802000FE03878012816D17A886989288913F048FC80B1298968894A1CAA
:2007DC0093B298420AD0788892B2904206D04844688180B213F034FC4844E883387801286E
:2007FC000FD128897988401C80B2884209DB7C793C71022038702346A9792246002009F097
:20081C0091FC05F59A71087920B128890021401CE983688105F12E08B07E01284BD12A8903
:20083C00B08B521C92B2904245D1688105F18601284613F031FCB08C688400212977E9836E
:20085C00E88969894118A981B08B298913F0F8FB8146B8F80410308C728C01FB0909F08CE4
:20087C008A4204BFB8F80810884202BFB38CB8F806108B4206D000090090B38CA97952087E
:20089C00002004E0000900905208A979302013F0D3FBB07F88F80000718CA8F80410B08C66
:2008BC00A8F806002846F18CA8F8081013F0F0FB0220B07601E0B8F80490EA8B501C00FB9C
:2008DC0009F040F6C41909FB00F100912B68D3F80CE07144D960B14B1B6819788909032964
:2008FC001BD1AF4BAF49DB7BDB0702D500230B8013E00B885B1C0B809BB2012B03BF05F584
:20091C009A71C98801F2DC51698A41434FF4C873B1FBF3F1491C696107E0698A41434FF4EA
:20093C00C873B1FBF3F35B1C6B61A86185F820204FF01C0BDFF870A2AB79DAF8000000F18F
:20095C0008021BFB03F3D1582A68116100F10801AB79D26868691BFB03F3121ACA50DAF8EB
:20097C000000AB7900F108021BFB03F3D1582A68916000F10C02A9791BFB01F10C30535C70
:20099C0003F0F00343F002034354DAF80010AB798A1C1BFB03F30021D152387908B911F017
:2009BC0099FADAF80000AA7900F1100138791BFB02F240088854A879DAF800101BFB00F0A9
:2009DC000844002141743879042814D1A879DAF800101BFB00F001F110021031135C3A7AA6
:2009FC0043EA82030B54AA79DAF800001BFB02F2024420205074DAF80010A87901F1120278
:200A1C001BFB00F0002111526849A8790A6802F114034FEA401C143253F80C00AB79D5F8BF
:200A3C0014C05B0100EB4C00D050B07E02280DD10A68AE7902F11403760114329859AB7968
:200A5C0098F800605B0119FB0600D0505448C27BD0075CD5DAF80000AC7900F108031BFB0A
:200A7C0004F408301A59AB791BFB03F3A2F5A862C250DAF80000AC7900F108031BFB04F4D3
:200A9C001A592B689A600098121A1A610868AC7900F11403640114301A59AB795B0102F5CB
:200ABC00F662C250387904280BD10868AC7900F11403640114301A59AB795B0102F5616204
:200ADC00C2500868AB7900F114025B01D058C5F834016427364A0B68106BAE79006803F15B
:200AFC001C04B8F804304343B3FBF7F7760109FB07F0A0F59660A0512E480378012B30D1A8
:200B1C000868A97900EB41120120D07230E0042C0BD10868AC7900F11403640114301A59B1
:200B3C00AB795B0102F56162C25038790A68AC7904280CBF4FF4AA504FF4E66002F114033E
:200B5C0064011A59101AB8F8042009FB02F2A2F516729042BDD30821284613F089FA0120EC
:200B7C0016E0506A0968AA79407801EB4213D872A879DAF800102A681BFB00FB01EB0B0035
:200B9C00506007210C48017028460DF003F80020BDE8F28F780E0020D10F00203C0F0020DF
:200BBC00980C0020D63C0020980E00209C0E0020B4610100CC0F0020C80F00202DE9FC4732
:200BDC00D54C0F460546F80B80F000826078DFF84C83B90F80F0A481B90880F09581F90A1E
:200BFC0080F0FF80390B80F0CA80380907D2F80FC0F0228227F080470DF03CFD1CE212F063
:200C1C0083FE814611F0F8FD002800F0B280082012F04AFD002840F0AC80802012F044FD58
:200C3C00002840F0A68068460BF0A2F9012803D10098002800F09D8094F82902002840F0FD
:200C5C00988000250126E8B212F066FA48B1837A3BB1867290F9090006FA00F0C0B210F04A
:200C7C001FFB6D1C032DEED30320207604F5C07012F042FE484613F0DBF9D14800252A468D
:200C9C000168056050F8081CCE4940F8085C04F1540011F0E1FC40460068006B8047A168FB
:200CBC00401A010B206AC1F1FF3282422CBF08444FF0FF30206294F8240020B12069216AC5
:200CDC00B1EBC02F25D911F0A7FD294600B13146081C1BD0BC4840F6090101804580417BDE
:200CFC0006F00F0221F00F010A434273017B05F00F0321F00F0143EA010202732946416055
:200D1C0012F094FB418811F4406FFBD084F8246025620FF071FACC4829460560022011F0E2
:200D3C004DFB022010F0AAFE112009F075FD207818B96068483012F007FEC448007810B9EC
:200D5C000E2009F069FD94F8250020B184F82550052010F093FEBE48E0612576B4F9A8008A
:200D7C00B4F9AA10884214BF022007200CF040F802E0484613F05CF927F008073CE720B1F4
:200D9C00042010F07BFE00206070656810F06CFA38B12846ED696FF4807100224FF00073A2
:200DBC00A847E06858B140460068006B8047E2686168801AC860000BC8600026E660A54955
:200DDC0004F15400002211F047FC0221D4F89400217618B104F1D40012F0C4FD27F4006757
:200DFC000AE712F091FD064611F006FDD4F88C100028894600F0828000297FD09649042535
:200E1C0004F154000022257611F026FC304613F00FF904F5C07012F06FFD40460068006B1C
:200E3C008047E0604FF0010884F80180284610F03DFED9F810006060D9F81000416AC908A3
:200E5C0003D3036A29460022984740460DF01AFF606880F81580606807F038FE6568D5F8C3
:200E7C0008A040F60A02D01F564600F1010C00E01E46736833B119888A4203D0884218BFFF
:200E9C008C45F5D100217160727B08F00F0322F00F0213437373D9F80C201288904224D0FA
:200EBC006046904221D02B8E03B3696305F13002518095F83C0001F00F0320F00F00034348
:200EDC0085F83C3095F83D0008F00F0320F00F00034385F83D307260707B01F00F0520F018
:200EFC000F0045EA0001717300E0E160504612F09DFA5146404611F061FA02E0304613F08F
:200F1C0097F827F4806797E005F0E8FFD4F8940008B927F002078FE0202A00208C0100101A
:200F3C004E4A116841F08001116020B1042010F0A5FD0020607012F0E7FC8246D8F8540009
:200F5C00016804208847D0B1287DC0B1A068B0B18146D8F800002E69006B8047A0EB090025
:200F7C002861000B2861B04202D280194008286140F6C41181422CBFB0F5967F2961504675
:200F9C0013F056F810F070F980B1EE6928466FF4807100224FF00073B047D4F88C000028E6
:200FBC0008BF47F0020701D00DF064FB2846AD6900214FF080630A46A84727F000573BE052
:200FDC0014100440C9F30000BC3B002012F09CFCD4F8A46066B306F1280106C90A234FF0DC
:200FFC00E0450B40154008BF002B21D106F1280191E8000306F1280595E8060006F12803C7
:20101C0022EA090221EA080183E8060013F010F8B16879B1B9F1000F08BFB8F1000F09D0B9
:20103C003069B6F93010B5684B464246A84701E012F0FEFF27F4804727B104F1D400394605
:20105C0012F090FCBDE8FC870000046022600100D597000019900000F5270100CC21084070
:20107C002DE9F04F0F46780689B027D5DFF8F8231078002113F01CF804001FD0DFF8EC038C
:20109C0001688847054612F0C1F96168884204BF40F2014012F0C8FF00202072201D09F07B
:2010BC0091FDDFF8CC130A682846904720460FF0CBFEFF223C21204612F0CEFFB80604D5A1
:2010DC000BF05FFB87F02000CAE1F8070CD512F09DF930B100218160DFF89803006800B177
:2010FC00804787F00100BBE1380704D50BF061FC87F00800B4E1F8060FD50021002200232D
:20111C000691059204910393029101920091022012F086FF87F01000A2E1B8070FD500212C
:20113C000023069105910491039302910191009101223C2012F074FF87F0020090E1790704
:20115C004FF01E08CC4EDFF834A340F1CF80CC480022002108920791007812F0A9FF0446D1
:20117C00C8488178FF2904BF002010F0B3FEA07A11F08CFF05469AF8000095F82E91002897
:20119C0005F5947B69D0606D807A022818BF032807D130680D3012F03FFF10B93068C11DD2
:2011BC0007915946484612F033FFA0B3606D807C3368002818BF012804D11946584612F067
:2011DC0023FF04E05A464946184612F019FFFF2843D018FB00F83068404406225946C01D41
:2011FC0011F0B8FF306810F80810404400F1010BC01D41F0020908900622616DC87A00F009
:20121C00010085F82E01606D00F10C0105F5947011F0A0FF21E05946484612F0EDFEE0B1F0
:20123C0030685A46494612F0EBFEFF2815D018FB00F8306840440D3012F0EEFE58B93068D9
:20125C0040440D3012F0E8FE002801BF30684044417F012901D149F0020905F12C004B4612
:20127C00017806914289120905920122698C0491C0880899029140080390CDF800B00798AD
:20129C0001900020A97912F0CBFED5F89C017E498842A8790CBF0021012112F0A9FE7B49FD
:2012BC00AB790A6830204343134401225A70AB790C68434323449A70AB790C68434323444E
:2012DC00DA700C68AA79231D424301249C54AA79096810FB02F00844002141710122A97942
:2012FC00072008F0B6FE87F00400B9E038060FD50021002306910591049103930291019108
:20131C00009101223B2012F08BFE87F08000A7E0F8045DD55E4930680C680D3012F07CFEFF
:20133C00002844D13068C11D0D3012F05DFE3EE0606D4178480704F13E0526D52878022854
:20135C001EBF03286878012830D16978306804F1380212F055FE8146B9F1FF0F15D0306866
:20137C0018FB09F948440D3012F056FE68B930684844C11D0D3012F037FE30684844C11D84
:20139C00062204F1380011F0E5FE2878022818BF03280BD130680D3012F03EFE30B93068BC
:2013BC00C11D062204F1300011F0D4FE2468002CBED13848DAF8042000784FF480510FF0CB
:2013DC0021FA10B18E2012F00BFE87F4805047E0B80505D512F020F92F4901200860FEE752
:2013FC00780504D50CF003FE87F4806038E0780405D5812012F0F4FD87F4804030E0B90419
:20141C002DD5264C206810B1002010F063FD4FF0FF3020600020224C0CF01EF8216851F813
:20143C00202F684690471F494A6B086BC96A24681D4B019200900293ADF810106B461B4A72
:20145C001B491C4803921C4A079225681B4AA8471B49086004F06AF887F4005000E0002046
:20147C0009B0BDE8F08F00BFD50F0020E4230020E8230020480F0020680F0020880E00209A
:20149C00D70F0020780E00204DE50110683C00204C0F0020C70F00207C052043380F0020C1
:2014BC00200F0020DC240020093401001934010098280020280800201EFB0080EC0A002036
:2014DC001C0F00202DE9F84F0446002000900CB910F000FD04F1500941F62300D9F80060B3
:2014FC0030800021022071808222707332736946204609F033FD08B9072007E2B060206120
:20151C00D9F80400407A0FF0D3F8253020760021207EB073F173D9F80400017D022904BFE4
:20153C00002010F0D7FCD9F80400007D012802D10020307405E083280CBF06200220307443
:20155C002020707404F1240BD9F80400DFF8C0834178480615D5D8F83C00416908689BF88E
:20157C000510401C01EB4101405A7082607DC10604D5E07F40F04000E07702E040F040002F
:20159C00607506F158050020287104F130009BF81A10890001F004012971B0664FF01E0AD5
:2015BC00607DC10645D506F130003062D9F8040041788A060BD5617D01F0FE01617540783E
:2015DC0010F0030F03D1E07F00F0FE00E077607D12F002FDA075421C307CC0F38001002311
:2015FC0092B200F0030012F0F3FCA0831E23A08BE27D00F5967100F59B7012FB01F290FB32
:20161C00F3F30A320AFB13006283C0B208B1C0F11E008018A183608380B2B168A63001EBE9
:20163C00800131660220E871E17F41F00801E17713E000273762607D40F001006075D9F8A2
:20165C0004104A78510744BF40F002006075607D12F0C2FCA0753766EF71A17D207D61F378
:20167C00050006F18801207508700322607D48708A7006F128079BF81A00800000F00400C1
:20169C0040F0030088709BF81B20D20002F00802104388700020C870C6F89000BBF81C00A7
:2016BC00C0F30B00ABF81C00D9F80410CA7D40EA0230ABF81C000022617D01F0FE012046F4
:2016DC0012F082FC40F61200B0830021F183D8F83400008880007062D8F8340000880028CC
:2016FC001ABF072139703870617DC8064CBF00200220787041F62401E07D78803981002010
:20171C007881618BB06800EB8100B0630221822038757975002194F8210000F03F00B875A7
:20173C00F975D9F80400807D012818BF022805D100F07F00401E3876797606E083280CBF87
:20175C0006200220387620207876D8F83C00416908689BF80510401C01EB4101405A78835C
:20177C000021F166D9F80400417811F0030F1FD012F026FCF066D8F818000078C107D8F8D3
:20179C00181009784CBF1F200F208A07D8F81810097848BF40F020004A07D8F818100978E0
:2017BC0048BF40F040000A0748BF40F08000287600206876D9F80410564A897C01F00301B3
:2017DC0069769BF81A00800000F00400014369769BF81B00C00000F0080040F010000143E0
:2017FC006976107830B141F040016976287E00F0FE002876E07F12F0EFFB84F820002046B5
:20181C0012F0DAFBE07FC1063BD5D9F8040094F820204178521C88074EBFD21E9BF81F0099
:20183C001218387EC0F380010023D2B200F0030012F0CEFBABF80000BBF8000000F59671C1
:20185C00C1F11E0291FBFAF10AFB012A8BF804A0D9F8042051788A074CBF00214FF49B7102
:20187C000818ABF80000ABF80200BBF800109BF80420B06B5218A63200EB820070670220A7
:20189C0001E000207067E87604F13000C6F8800006F18400D9F804104A78510706D504F149
:2018BC0038020260687E40F0200006E01A490A6851680160687E00F0DF006876A17F94F826
:2018DC00200060F30501A17740F60B00B8840021F984D8F83800008880007065D8F8380053
:2018FC00008800281ABF0721297028700221697094F845006880D9F804104878810744BF05
:20191C0001206880009807F0CFFF0020BDE8F28FB4610100880E00206C0F00202DE9F84F3B
:20193C000546DFF80804DFF808640278002A84B048D0052A56D0062A58D0072A18BF082A43
:20195C0000F0D1800A2A00F0C381112A40F0E481DFF8E0331878002112F0AAFB04001EBFCF
:20197C00606D407810F00C0F2CD0216DC0064CBF886CC86E0622016801F10805A91C684623
:20199C0011F0E8FB287800F00F0105291AD16946C0F3801012F03CFB002813D03168684611
:2019BC0012F032FB0546316804F1380012F02CFB85420DD0606D4178C80604D440F201405F
:2019DC0012F032FBAEE1607B40F002006073A9E133681E204543581906226946C01D11F03C
:2019FC00B9FB9FE1012012F0E3FA9BE1DFF84853286812F0D9FA0400F7D020790328F4D1F0
:201A1C00207A00F00F01072938D1DFF8300300684169497A4A1E11425ED0617A04F10A0332
:201A3C005A5C02F03F02252A56DBA17A8A09012A52D111F03F0F4FD0007C11F027FBE17ABD
:201A5C00CA074CBF04F1110204F10B028B0748BF921D0B0748BF921CC90648BFD21C16217A
:201A7C00127852094A43B6498B180A31EB608A5A428699898186DA89C2862DE000F00F0024
:201A9C00082829D1A17A880926D129B3AB480168087C11F0FBFAE17A074688071CD506225B
:201ABC0001F001015143601800F10C01684611F051FB207AC009FF280ED0694612F0A8FA57
:201ADC0050B1306800F10D01684612F069FA18B90521384612F0CCFA2079032802D000204C
:201AFC0010F0F8F914E1DFF85C9299F802000024FF2821D011F0CAFA804608F16C07786879
:201B1C0012F052FA029029460279032A01D0080012D00298826813788DF8003003F003003D
:201B3C0001909DF80000830604D50124019820B97868EEE00800F9D0F4E0557802F1020A4B
:201B5C002CB31AF8010B804A13680390302098F806E003F10A0C10FB0EFE01230CF80E3047
:201B7C00002998F806E0136810FB0EFE9E44039B03F01F038EF81C3098F80630126810FB66
:201B9C0003F01044039AC2F3811242771BD10198032808F2171B1BD0B5B1387868B108F155
:201BBC00F400017801290FD1604A1178072904D0082904BFC078012806D13D2101208BF82D
:201BDC0001108BF80000ADE060490A78012AFAD098F8940090B32D1FEDB29DF80010534618
:201BFC002A4640460BF0CAF900281EBF58490878002809D101203D218BF800008BF8011057
:201C1C00306812F0C9F98DE0524801688847064698F80610D9F804204FF4D07041435018B7
:201C3C00002280F8412108F59E700168807949080BF08AFC48490A68304690470298002142
:201C5C0081600198032819D04448416909788A0709D541690878C1074CBFE81C28461AF833
:201C7C000000387201E0812139722A460198C3B299F80200514605F02DFB21E09AF8000018
:201C9C001CB11B2804BF022D01251C2803D234490B5C9D4206D08BF802000721404612F019
:201CBC00DFF90AE02148017808295146404602D111F024FE01E000F059F850460DF020FE4D
:201CDC00786812F065F90299404612F05DF929E0244C207830B3244D286812F065F908B31F
:201CFC00017903291ED1017A8A0611D5807AE178C0F38112914202BF217900F01F008142A9
:201D1C0006D1A078002801BF607800280121A170286812F03DF905E0002010F0DBF8862057
:201D3C0012F0BEF905B0BDE8F08F00BFC80F0020680F0020D50F0020BC0A0020540F00203B
:201D5C00E0070020780E0020683C0020D20F0020E63C0020E4230020E8230020B46101004B
:201D7C0040620100043C0020AC0C00202DE9F043044685B0084611F801CBDFF8A483DFF8AC
:201D9C00A4333022BCF1030F4FF0000904F5A47704F1660504F1F40600F0C380BCF1070F9E
:201DBC0000F08081BCF10F0F0CD0BCF1110F00F02481BCF11A0F00F03681BCF11B0F00F0C9
:201DDC0061818EE1707A820703D40F2184F8191159E008784A7800EB02233B808878CA78EE
:201DFC0000EB02237B8008794A7900EB0223BB808879CA7900EB0223FB80087A38724A7A6E
:201E1C00887A02EB00237B81C87A0A7B00EB0223BB81487B8A7B00EB0223FB81C87B0A7C68
:201E3C0000EB02233B82487C8A7C00EB02237B82C87C0A7D00EB0223BB82487D897D00EB14
:201E5C000122B948FA8201788A0658BF4FF01A0913D504F5AA70049079890391387A0290DB
:201E7C0021890191F8880090BB887A883988204612F086F8C8B14FF01E09707A410706D423
:201E9C000F2084F81901204612F076F8F0E04A460F21204612F06CF8F8880090BB887A88DA
:201EBC00A17948460DF030FCE9E004F1860079888180BA88C2800222F98801810270A0F83A
:201EDC000290A18EC91DE983628E8188B1EB520F02BFC188A28E914202BF0089E18EB0EB7C
:201EFC00111F1CD0287C012804BF687C0F2809D0687D00281CBF687C1A2803D00F21A976F6
:201F1C00FE2176E0FC21204612F0AAF8F8880090BB887A883988A07912F026F8AFE01021FA
:201F3C0067E0707AC20709D431781A200129707002D1FF220D213BE00D215AE085F800900F
:201F5C0085F8069001233371082204F1B00012F007F80146022204F1B80012F001F804F1B2
:201F7C00A80801460822404611F0FAFF07460821404611F0F1FF04F19C08042239464046F3
:201F9C0011F0EEFF0421404611F0E6FF04F1A00011F0DEFF04F1980011F0D6FF634801889C
:201FBC0041F0800101803078012805D1FF220421204611F0C5FF62E06E7C0F2E18BF142E38
:201FDC0004D00E2E1CBF0C2E1A2E11D12F7C204611F0B2FF0421204612F042F8012F05D106
:201FFC001A2EAE7614BFFD21FB2102E0314600E00421204612F034F841E00E783E761A2EB7
:20201C00497879766DD11868A679811D564301F806901968A37912FB03F20A4482F8099051
:20203C00A179787E56E0A77918680E785743074406F01F0117F8250FB60938B17878F04012
:20205C00C00703D594F89601042805D120221A21204611F08DFF12E0F970A179186812FB2E
:20207C0001F28118204681F82760002107F0B4FA28B998F800004FF4804108F0B9F84FF02F
:20209C00010932E0A179186851430144888908B981F80690A179186812FB01F2811881F808
:2020BC000990ECE709780F2917D01A2919D1A1791868514301441A2081F80690A1791B6872
:2020DC0012FB01F2991881F80990F17A01F0FB01F172A1790AF0B2FCD1E7717A01F0FD0112
:2020FC0071720146204611F023FF687C1A2812D1A87C17281CBF1028FC280CD12E7C204681
:20211C0011F01AFF012E03BF1A20A876FB211A21204611F0A5FF484605B0BDE8F08300BFC4
:20213C00C70F0020683C0020200E00209C0F0020DFF874030278112A00D070472DE9F84FC9
:20215C00DFF868231078002111F0B2FF04000AD100200FF0BFFE00200FF0BCFEBDE8F24F2C
:20217C00FF2011F09DBF04F14C0999F8000008B90121E172401CD9F8083089F800005978FF
:20219C00CA0642D4E27DD9F80460C7B297423DD2C0B2012808BF032A0DD111F0C5FE217E78
:2021BC0000F001004118491CC8B22828B17319DBC91EB17316E05A7AB07B277E0121A0F11A
:2021DC00250301FA03F3A7F125008140194322EA010101F0070141F02401B173242904BF5F
:2021FC002720B073B068A18B00EB8100B060607DC1060AD5628B99F80010A08B00FB112130
:20221C00B068A63100EB810030664BE104F1280706F1900806F173054FF0000A50D1A17FD9
:20223C006975E07FA875D9F808205278930710D5E27FD30604D5C91E697500F0EF00A87512
:20225C00C6F874A085F800A00022A97D01F0FE0123E1910608D4F88B00B1F87E2876F88BF9
:20227C0000B1386AC8F80000D9F808004178CA070DD5F88B00281CBF386A002807D0C8F803
:20229C000000B97EF88B814238BF08462876E07FC1060CD5B06B397800EB8100B063A18C43
:2022BC00A63100EB810070670220287003E0C6F874A085F800A00022E17F01F0FC01ECE020
:2022DC00CB071ED5687D811E697501F03F01A87D00F0F700A8758207697504D4891D69759E
:2022FC0040F00200A875A87D410605D56A7D511E697500F0BF00A875C8F800A085F818A098
:20231C00D0E0801AC0B20090880740F183800098012806F1400B3FD1B06BA18C00EB8100CB
:20233C00B063A07F00F03F00A0776875E17FA975D9F8082053785A0704D5801F687501F043
:20235C00FD01A9750023687DF97E00F03F0042189BF80000521CC0F3800192B200F00300D1
:20237C0011F036FE00F59B70A0841E21A08C90FBF1F18AB2A97D01F0FE01204611F024FE35
:20239C0085F800A0F88B00B1F87E2876F88B00B1386AC8F8000085E00228B06BA18C00EB64
:2023BC008100B06326D1E07FC10706D5687D811F6975A87D00F0FE00A8750023687DF97E62
:2023DC0000F03F0042189BF80000521CC0F3800192B200F0030011F0FBFD00F59B70A084CF
:2023FC000022A97D01F0FE01204611F0EDFD787FABF81A00797F0098491C081AC0B20128D2
:20241C001CDDA28CB16BA63201EB820171670221297014E0B06BA18C00EB8100B063797FCF
:20243C000098081AE17FCA06C0B207D5A28CB16BA63201EB820171670221297090B3D8F810
:20245C00003097F81BC0E27FA17F6344C8F8003022F00108D9F808205278530748BF28F057
:20247C000208920748BF28F00808012807D1387F2876C6F874A028F0100885F800A001F008
:20249C00C006404611F0A8FD00F03F003043687585F81680002208F0FC012046BDE8F84F33
:2024BC0011F092BDBDE8F18FC80F0020D50F00202DE9F8439D4C9E499E4E20700A220020A7
:2024DC0008600D239C484FF4057102704380818084B09A4A9A48106037789A480770FF2FD5
:2024FC007178417008BFFF29B2788270F378C370357905717679467114D1FF2A08BFFF2BB4
:20251C0010D1FF2D08BFFF2E0CD18F490A7802704B7843708A788270CB78C3700A7902711F
:20253C004979417189490278894D8A4E8A4F0A7043784B7082788A70C378CB7002790A71E8
:20255C004079864A4871FF2028706870A870E87028716871002082490880F06B814940785C
:20257C0008708149F06B0078087013887F4880490380F06BC06C08607E49F06B90F83C002F
:20259C0008707D49F06B90F83D000870F06B406901797A484A1E0270F06B7949C078387032
:2025BC00F06B8069086008B90FF094FCF06B7549C069086008B90FF08DFCF06B416D72484D
:2025DC000C2210F0C7FD11F0ABFCF06B6F49006A086008B90FF07EFCF06BDFF8B481406A15
:2025FC00C8F8000008B90FF075FCF06B6949806A086008B90FF06EFCF06B6749C06D0028E5
:20261C003CD001220A75F06BC06D02681378C3F3400028B1C3F3C00000280CBF01200220F8
:20263C00487500208860C8600861F06BC06D426890780870F06BC06D4268D0784870F06BE9
:20265C00C06D426813788B70F06BC06D42685078C870F06BC06D426810790871F06BC06D13
:20267C00426850794871F06BC06D426890798871F06BC06D4268D079C87101E000220A75A8
:20269C0000F004FE07280AD105F0EEFF20784FF4804107F0ADFD00200FF01CFC43E03F4822
:2026BC000168884781460BF055FBD8F8000001688847684610F0F2FED8F8002004208DF875
:2026DC000000694652F8043F00209847344908600DF0DAFAF068334A01883878324B01431E
:2026FC0011804846196888470C21304811F026F9284611F011FC11F00BFC2D4800214FF62B
:20271C00FF7201608280F06B90F858102948006810F04CFE0121FF2011F00AF920784FF43B
:20273C00005107F065FD05B0BDE8F083C70F0020380F0020D04F0050700E00203C0F002031
:20275C00B63F0050400E0020E8120050500E0020480E0020B4610100C40F002052290020C8
:20277C009E0F0020C60F0020D40F0020D43C0020743C0020E43C0020E53C0020CB0F0020FD
:20279C00200F0020240F0020103C0020280F00202C0F0020300F00205C3B0020E423002020
:2027BC00783C0020A00F0020E8230020FC0D0020800E0020883C00202DE9F84F05004AD0F8
:2027DC00AA480078092818BF0A2804D00B281CBF0C280D2801D1212046E1A878002111F072
:2027FC0067FC040008BF4220F6D0A14EA9789F4A3170107810B9A8789E49087004F14807B9
:20281C00F868417801F01201022902BF786900280C2012D0607AF0B1A07B012804D1B5F83B
:20283C00030008B1812816DA6878402813DA204611F06AFBB86808B9072015E1BD6128786A
:20285C0001281BD1A07B00281CBF0128042815D18948007808B9122006E188494A78824274
:20287C0008BF0920F8D004F1220004F13801427F802005F069FE08B10B20F5E0687808B928
:20289C001120F1E02878DFF8F881DFF8F8B1DFF8F8A1012840F09380207A00210128217356
:2028BC004FF00A0911D19AF8000040210EF014FDB5F8030009FB00F1402011F021FB0100A3
:2028DC00DFD1B96968794871CDE001202072E172617308F01BF96060DBF8000080476B4ACE
:2028FC000146106802E06268426000680028FAD10846D8F800108847616865484861002117
:20291C00307811F015F831780122112007F0A1FBF8684178C80605D5204601F03BF9010008
:20293C000BD0A1E0002060840CF096FF84F821002046FEF7C7FD0100F3D1F8684178C80721
:20295C001CD504F14206B18800291CBF3868002814D032788A4211D20F2011F0CDFA68B1DB
:20297C00F86801788DF80010B088ADF801000F2031788DF80310694611F0BAFA3B4E3078EA
:20299C00002870D14349087800281EBFF868417811F0030F03D04048006811F0A5FA1120E1
:2029BC00307001212172B5F8030009FB00F1402011F0A6FA010057D100F0F2F953E0207A2F
:2029DC00002851D0DBF80000804705463078012110F0AEFF9AF8000040210EF07DFC0020AC
:2029FC002E4920720A68367811460B68187A002802BF586D0378B3421ED089689142F4D1A1
:202A1C0010F03AFE012824D110F000FD616888421FD10FF003F840F2014011F005FB2049ED
:202A3C002048086001219AF8000007F0E1FBD8F800102846884716E01B4E30780128DFDD1A
:202A5C0008460EF0D3FF10F011FD3078411E3170D6E7204611F044FAD8F800102846884707
:202A7C0020460EF0F1F90020BDE8F28FC80F0020D60F0020D50F0020D40F0020780E0020FD
:202A9C00E8230020E4230020C70F00204C0F0020194A0000880E00206C0F00207C3C0020CB
:202ABC00480F0020F9340000E33C00202DE9FE4F0D46074628687C68BE6800283AD010F048
:202ADC0023FFD4F8F01081460120019008294FF0000088BF0198A968084202D169680842DA
:202AFC0005D0019880F00100C0B201281DD1D4F8C800B8B9C4F8C850C4F8CC500020C4F8C5
:202B1C00D8000146C4F8DC1094F80431C4F8E010002BC4F8E4100CBF01980520D4F8CC1059
:202B3C00087411E094F8000138B903202874484611F07EFA0020BDE8FE8FD4F8CC00456138
:202B5C00C4F8CC5006232B74D4F8CC000021416194F80401012809D1022294F803318E490F
:202B7C00E06984F8042119430EF08CF9686810F0704F06D128B104200EF098FF06200EF054
:202B9C0095FF02200EF092FF94F80001DFF80C82002840F08F80F0692968884240F28A808B
:202BBC0094F80401002840F0858094F8010120B1D4F8F400B0F1FF3F7CD1484611F038FAFF
:202BDC00A868B24600280CBF04F1FC07071C6868031C0CBF04F1FE061E1CD4F8F0000928E9
:202BFC002CBF4FF0020BDDF804B0DAF80000D5F800904168B9F1000F41F00201416008BFCC
:202C1C00191C32D04146A1F11008D4F8F010092910D3D8F800104A6831889047D8F800005D
:202C3C00C168DAF800000A4669469047BDF8000038800FE0D8F800104A6831789047D8F869
:202C5C000000C168DAF800000A46694690479DF800003870AB6803B15F44696801B15E44BB
:202C7C00DAF80000B9F10109CFD1D4F8F850C36800221D4218BF019A102D18BF82F0010257
:202C9C00002AF4D111F0704F06D129B106200EF0F5FE04200EF0F2FE02200EF0EFFED4F8B6
:202CBC00C810002008740746C4F8CC703E46C4F8C8606EE0D4F8E000002843D1D4F8E400F1
:202CDC00002842D1307910F021FE4546D4F8D4002A68316940685268006891FAA1F1B1FAEC
:202CFC0081F1134602229847D4F8D4002A68716940685268006891FAA1F1B1FA81F1134681
:202D1C0002229847307910F0FBFD307910F000FE2046314603F060FD0021D4F8C800C4F8AE
:202D3C00E8100068B0F5806F03D92046314603F053FD94F8060160B93168486840F0020060
:202D5C00486006E0D4F8E40018B92046314603F043FD3168486940F001004861484611F085
:202D7C0067F994F80001A0B9D4F8F41004F17405284610F076FA60B1D4F8C8000321017497
:202D9C00384603F03FFA2846002110F06AFA002001900198BDE8FE8F00000780D401001092
:202DBC002DE9FE4F9D4E75681DB9BDE8F74F11F093B82878DFF868829A4FDFF86C92012877
:202DDC001CBF0228042805D0402818BF802800F08D801BE110F050FC0028FAD0287805F01E
:202DFC0091FA824611F074F8044699F80100002853D000F097FC10F049F9054628680090A0
:202E1C000146D1F804B0A4B1504607F0BBFA02280FD09AF800100129DBD128B911F084F85C
:202E3C0000F5E8504C30A0600120B070112139705AE00098017880290CD108207B4938704C
:202E5C000A78DBF81400012A1ABFD8F82410097801211CE007203870A87910F0AFFA044663
:202E7C00207BC1070AD5A87910F010F9052111F0FFF8207B00F0FE002073CCE06B480178B8
:202E9C00DBF8140001291CBFD8F824104978C172A87989F802000098B4E0BAF1000F98D040
:202EBC009AF80000554507D1012801D1E4B9B2E000200FF00FF817E001288AD1002CF6D035
:202EDC0011F032F80146A06801F5C241A8310FF023FC28B911F028F800F5E8504C30A060C1
:202EFC00112038700121B17050468BE099F80100002841F64C5B6CD000F014FC10F0C6F807
:202F1C00044620680190D0F804A099F8020010F0BDF802902878402811D1A07910F04EFAA1
:202F3C000546287BC1070AD5A07910F0AFF8052111F09EF8287B00F0FE0028736BE010F0EC
:202F5C0095FB10F0070F1FD0B07805F0DBF9009010F0BEFF050017D00199009807F012FA61
:202F7C00022811D000990A78012A0AD118B910F0DBFF5844A8601120387001210098B17006
:202F9C0040E000200EF0A6FF0298A0421FD0019926480A78802A0BD1082139700078012844
:202FBC00DAF814001ABFD8F82410097801210AE007223A7000780128DAF814000EBF01215C
:202FDC00D8F824104978C172A07989F80200019818E010F04BFB10F0070F1CD0B07805F04B
:202FFC0091F9054610F074FF04462878012812D18CB110F099FF5844A0600121112038700B
:20301C00B1702846BDE8FE4F06F05EBBBDE8FE4F00200EF05FBFBDE8F78F00BF1C3C002074
:20303C00B4610100C80F0020780E0020CC0F00202DE9F04F0746F88916468A46ADF1440D88
:20305C00C01D80B205460BF009F88F4CFF280BD1284605F0E9F9854204DD641C207800B962
:20307C0005200EE1012000E000206178D9B916B1022E18D1B8B1387AFE88BD888DF82C001D
:20309C000023009309AAADF82A60E18E94F83300ADF82850032306F033F89DF83400387475
:2030BC00BDF83060BE81BD8955B3FE8946B3AD1B4FF000091FFA85F84D463A7C761B202ED4
:2030DC00D4BFB6B22026E06808EB050189B2334601EB423101AA10F06DFB0AEB050101A888
:2030FC0032460FF0E9F958B9AD19FE89ADB2AE42E3DCB9F1010F1CBF4846B88140F0BA8029
:20311C0094F83310E58EE06801AA04238846490310F050FB019800F0FF007E2806D1404647
:20313C007C210EF033FC019800F0FF007C2840F0A580F88942F20102C11D8EB2A9198A42C4
:20315C0040F39A80F9883A7AC1F301238DF83910B98843EA82038DF838308A1007468DF8DF
:20317C003A200423C0F3851201F0030142EA81128DF83B2010FB03F1FA1D01F0FC017B193C
:20319C0090B28DF83C101FFA83FB0D282BDB50463946002210F04CFA024605210EA810F08D
:2031BC0047FA9DF83C103B4600F03F07524641EAA011B8008DF83C1040F0020096278DF8A9
:2031DC003D0029468DF83E7040460DF039F8074659460EAA0723404667700DF031F8384374
:2031FC0060704DD135E004F1240051463A4608F0D9FD0EA90A68381900F12409484609790A
:20321C0002607B1D0171002204F1240099B210F00FFA9DF83C10962300F03F078DF83E30D4
:20323C0041EAA011B8008DF83C10334640F002000EAF49468DF83D003A68B8790A60BA88D5
:20325C00887140468A8004F1240229460CF0F8FF6070E18EAD194FEA8807AAB28919E1861A
:20327C0007EBC8010919A1F84C2048B1404659460CF094FE607803E0052000E001206070F3
:20329C00C0B211B0BDE8F08F7C24002038B57A4D687910F0E3F87949002808606ED00022D9
:2032BC00026002730868C2610262A87910F0D6F873490028086061D000220260C2720020E0
:2032DC000A681074052308684374002209684A61E87A10F0C3F86B49002808604ED06A4C1A
:2032FC0021782878C91C10FB01F080B210F0B6F866490028886041D02078002873D06988F4
:20331C0011FB00F080B210F0A9F8614A0028506034D060482278017811FB02F080B210F050
:20333C009DF85D490028086028D000250AE0E8B210F044F8002141808160018002230371EC
:20335C0001736D1C2078E9B28142F0D310F086F852490028086011D02078400010F07EF8C3
:20337C004F490028086009D020781C2110FB01F080B210F073F84B4A0028106075D02078B8
:20339C00400110F06BF84849002808606DD02078000110F063F845490028086065D0207830
:2033BC00000110F05BF84249002808605DD02078302510FB05F080B210F050F83D49002840
:2033DC00086052D0207810FB05F080B210F046F839490028086048D0207810F03FF83749C6
:2033FC000028086041D0364C364D2178287800EB4100C000103080B210F030F832490028A9
:20341C00086032D000F1080141602878227800EB4200C000103080B210F020F82B490860FE
:20343C0018B300F1080141601E212078401C10FB01F080B210F012F8254A1060A8B108203F
:20345C0010F00CF8234C206078B1062010F006F8216808602168086838B10020486006204F
:20347C000FF0FCFF1C49086008B9072032BD10F05BFA00B1002032BDA8280020500F00200E
:20349C00540F0020440F0020D40F00201C3C0020780E0020F1290020703C0020340F002090
:2034BC006C3C0020980E00209C0E0020A00E0020A40E0020A80E0020683C0020803C002082
:2034DC00E53C0020E43C00206C0F0020700F0020680F0020883C0020400F00202DE9F84FCE
:2034FC00DFF8249299F80000002110F0E1FD040004F1500602D10EF0EDFCF6E0207A30B931
:20351C00204610F0EDFC20460DF09EFC1AE0217B7E4F491C217330694079B8B1C9B28142EE
:20353C0014D1387840210DF0D7FE00202072204610F0D6FC20460DF087FCFF2243212046EC
:20355C0010F08AFDBDE8F14FFFF72ABC04F14508002088F807000B2510F031F97168D1F822
:20357C000320D4F810E022F07F4240F6C41303FB02EE90FBF5F50B2202FB1500D6F800C040
:20359C0080B24FF47A6148431EFA80F0CCF808003368986820615E48017802290BDB5D48EF
:2035BC000068816800680A68006911690FF0B4F808B10BF007FB70684178CA0604F1220503
:2035DC0018D5A07B012809D100212172204610F087FC3878022106F00BFE71E0306890F8E4
:2035FC00631001F0E00141F0860180F863104A49416665E0376807F1020B0021ABF80010D0
:20361C00407A0DF055F825302076207E8BF80C00617DC80605D5618BB868A63100EB81009D
:20363C00386607F1730A207D8AF815000020617D8AF816108AF81800C7F890002888401C8C
:20365C00288080B20CF008F984F821000022617D01F0FE01204610F0B7FC0020ABF81C00F2
:20367C00E17DABF82810ABF8300007F13E0094F8211001F03F010170628BB96801EB820110
:20369C00B9630021018298F80020828371684A78910709D5AA886A80A17F01F03F0141F0EA
:2036BC008001A17701218183E07FC10608D56988B86BA63100EB8100786702218AF8001041
:2036DC00164A107888B1287F022818BF03280CD1134F38680D3010F09FFC30B93868C11DBC
:2036FC00062204F130000FF035FDFFF759FB4CB17068017E480605D54946BDE8F44F0320D0
:20371C0010F0F6BBBDE8F18FD50F0020C70F0020E33C00207C3C002000204E00880E002082
:20373C00680F00202DE9FE4F884C617811B900200EF0D0FB10F0F8FB06464FF0000806F691
:20375C00C4160027824DDFF80C9211E038460FF09DFC417951B12A68817902F8081008F1AE
:20377C0001015FFA81F8314610F0AEFB7F1CFFB299F800008742E9DB6178884505D0002034
:20379C000EF0A8FB822010F08BFC607801281ED1002701E07F1CFFB299F80000874210DABB
:2037BC0038460FF073FC064670790028F2D02968B0790A7890421CBF00200EF08BFBB0792C
:2037DC00C2E000200EF086FB822010F069FC617828680AF053FE286800780FF057FC002651
:2037FC000068D0F804A04FF0010902E03E4609F10109771CC1450BDA286810F809000FF008
:20381C0045FC00684068DAF8081082689142EDD0F6B2002E1CBFF8B2002803D1286890F868
:20383C0000B019E0286890F800B001224FF4D0710FE0636803F5B176835C11FB03F901FB98
:20385C000BFE36F809C036F80E60B44538BF9B46521CFBB29A42ECDB4FF6FF7010F030FB42
:20387C00064658460FF012FC3B490068D0F804A00868D94630F8192060684FF4D07300F1AE
:20389C000E0103FB09F3C85AB2EBD00F55D2720840F6C410424300920027304A01900292DD
:2038BC0018E058460FF0F2FB01680A78802A03D1DAF81410009A4A6101680B78402B08D196
:2038DC00029980790A6802EB4011009800F5A060C8617F1C474530DA2868C05D8345F8D064
:2038FC0001464FF4D073594363685A1803F5B173D289595A53088B4202D2521A9045E8DADD
:20391C000FF0C4FB00684268DAF808009168019B06EBD6725208A1F6C41103FB02000EF04F
:20393C00FBFE0028BDD00C48006830F81910491C20F81910286810F807B0074802680021E1
:20395C005B4622F813105846BDE8FE8F780E0020340F0020D40F00206C3C00209C0E0020FF
:20397C002DE9F84F85682A68D16944681162490832D3D4F8C81049BB2968486820F00200A5
:20399C0048602968486A20F003004862D4F8D4002A6941686F69096847EA0200C862D4F815
:2039BC00D4006E6941682A69096846EA0200C1F804052968486920F00100486128680121F1
:2039DC00016228460EF03EFCBDE8F88F03220A7402F018FCBDE8F88FD4F8D40041682A69E5
:2039FC006F6909684FF000090226CB4647EA0200C1F80405D4F8C870002F00F0B980D4F8C4
:203A1C00D4002968D5F814E04068D4F8E8C0D0F80080BCF1000F0CD104F1E003B1F1804F1E
:203A3C000CBF544A544AB1F1804F0CBF534854480BE004F1E403B1F1804F0CBF514A524AB6
:203A5C00B1F1804F0CBF51485148D8F804A51AEA0E0F11D0806810F0070F0DD1D7F800A016
:203A7C00D4F8D800824507D17F692FB9486A20F002004862C8F804E5906810F0070F74D1AD
:203A9C001F68002F71D0D4F8DC00BCF1000F3844C4F8DC0014BF48462020C4F8E800C3F89B
:203ABC000090D4F8C810D4F8D820086890424BD8D4F8DC20904247D881F81090D4F8D0001F
:203ADC0004F1400730B9D4F8C810C4F8D010D4F8D00008E04369002B34D1D4F8C8104161BF
:203AFC00D4F8C81040694969C4F8C810C0F814B0D4F8E80000280CBFD4F8E000D4F8E40098
:203B1C00C4F8D800D4F8C800C4F8DC9088B12046294602F061FE94F8060178B1D4F8D4007E
:203B3C00406801686869D1F80425024218BF886204E02968486A20F00300486238460FF02F
:203B5C0013FF12E01846C5E72046294602F044FE94F8060148B1D4F8D40040680168686924
:203B7C00D1F80425024218BF8862761E7FF442AFBDE8F88F301800200019002040180020F5
:203B9C0010190020301A0020001B0020401A0020101B00202DE9FC470546002000900DB93C
:203BBC000EF098F905F1500A6946DAF80060284607F0D4F908B90720EBE00024DFF8D881F0
:203BDC00DFF8D891DAF804104A7A1820604301233718A3401A4209D0A97B39F8110038805B
:203BFC00002118F80420BA73F97302E040F6010038800021798007F118007860387B00F045
:203C1C00EF00387340F080003873A97B01290ED141F28830B860397B01F0F00141F0050196
:203C3C003973787B00F0F00040F0020017E0002C0CBF0221002100F0F0000843387324B9D2
:203C5C0010F072F900F57A6000E00020B860022C797B0CBF0120022001F0F00108437873AE
:203C7C00641C06F14800386106F16801032C7961A8DBA87B0024012805D1766310F054F978
:203C9C0000F57A6001E0B0687463286110F098F9B064434881690978CA07816909784CBFFE
:203CBC001F220F228B078169097848BF42F020024B078169087848BF42F04002010706F1E8
:203CDC004C0148BF42F080020A704C70DAF80420907C00F0030005F13E024870137863F3C6
:203CFC008200487052788C7062F3C3004870CC7040F010004870346505F13800F0657465AF
:203D1C00A87B012818BF042819D0DAF8080038B1B0F803008870DAF80820D2F8050030658B
:203D3C00DAF80C0038B1B0F80300C870DAF80C20D2F8050070651B4802685068F06505F14B
:203D5C003000B065184AC87D184B00F0EF00C87540F08000C87500F0F00040F00600C8759C
:203D7C007266187838B148780A7840F0400002F0FE0248700A700E4A937848785A064CBF72
:203D9C0040F0200000F0DF004870009805F08CFD0020BDE8F68700BF506E0210F46B0210D8
:203DBC00B46101006C0F002000204E00880E0020C00C00202DE9F04380490468804E824D0B
:203DDC000A68607D8846ADF1140D401E0B2800F28A80DFE800F09906097B6009350C14D1F5
:203DFC001A142169886804E02069816809E02169C86809680CF0ACFD0DF0FAFADBE02069BB
:203E1C00C168022200200A70D5E02169487C01280FD0C86809680CF09BFD05462069016822
:203E3C00C0684A6A406800218018401C09F062FA04E0C86809680EF013FF0546284642E008
:203E5C0020694FF080590168D9F80072CA68786D00920A6901924A6A5A4F02928B684A68B4
:203E7C00844630463946E047002809F5007118BF6FF0050040F09F80206902680C689168BF
:203E9C00206A0091D1680191516A0291CDF80C8053683A467DE02169087B01280FD08868E4
:203EBC0009680CF055FD05462069016880684A6A406800218018401C09F01CFA04E08868AE
:203EDC0009680EF0CDFE0546284695E7206941684968CA7F12F0070F05D1097831F07F0715
:203EFC0001D1C90902D24FF0FF3064E04FF080590368D9F80002596AC06D0091CDF804805C
:203F1C005A68996A9B6845E04FF080592169D9F8002248680968526C4068496A904709F5F4
:203F3C000076002818BF6FF0040044D1216930680A68C06A1169526A034628469847306856
:203F5C00406A80470828FAD0306840688047062818BF6FF003002ED12069036837689968D9
:203F7C00386A0091D9680191596A0291CDF80C80DA6A996A5B680DE020694FF08059016877
:203F9C00D9F800724A6AF86D0092CDF804808B684A68314604462846A047D9F8B001006A27
:203FBC00014613208847D9F8B00100690146132088476FF01F0005B0BDE8F083BC3C002005
:203FDC0060620240C0620240006202402DE9F04F824C4FF0FF0A00254FF0100BADF1240D00
:203FFC0084F834A004F1300984F832A065E00C2015FB0096E068690306AA04230FF0DAFB63
:20401C0006F116079DF818009DF8193038700698F375C0F38541032903D09621B1EB106FED
:20403C0038D1C0F30140F8703878FF2830D0FE282ED07E282CD007A80CF0CAFEE06869033B
:20405C004FF088524FF400530FF0B4FB64484FF4005650F8041D361FB6B2B1F1FF3F06F1A5
:20407C00885201D1032EF4D810684FF00108414600F0FF03FF2B18BF8846491C000A0529D6
:20409C00F6DB106007980EF01BFE4644FE8001E0A7F806B038787C280BD0782809D070288F
:2040BC0004D0FE2808BF84F8325004E084F8345001E084F833506D1CEDB2E078A84296DC85
:2040DC0094F83310FF2920D194F83420FF2A15D194F832200025FF2A18D0521C92FBF0F1FD
:2040FC004143521A91B28A0002EBC1024A44978B002F08BF84F832A003D00A4684F8332051
:20411C000225214691F8331000E00125FF2910D1002684F83360304606F0BEFA617808439D
:20413C0060707E2130460DF031FC2146E07891F8331094F83220FF2A14D1491C91FBF0F20A
:20415C004243891AC8B284F8320006F0A5FA61780843607094F83200FE210DF017FC204617
:20417C0090F8331084F8311094F8332010462F46810001EBC0014944898BA570781EE18610
:20419C0002D0401E23D025E0172923D91046C91F01AA89B207F01CFD9DF80F00C00816D316
:2041BC0000200090BDF81220E18E94F833000323891AC91F01AA89B204F0A2FF50B9BDF834
:2041DC00101039B19DF814000BF0E8FE02E0002004F02AF909B0BDE8F08FC0467C24002073
:2041FC00002000112DE9FE4F9B461546894682460FF08AFB7B49019008680CAF504508BFDC
:20421C0048687B4C6FF0010828B1B0300FF086F8002840F0D6800EF0BFF8061C00F0DB809D
:20423C0004F5C0700FF068FB0023B4F9A800C6F80C90401C86F832306FF31F30A4F8A800D4
:20425C00C6F808B0B4F8A80030866748C6F810A097E80C0020210027B8461940104006F114
:20427C00180383E80300424686F8332006F1200383E88001E8683064287C86F84400286860
:20429C007063287986F83800A868F0636869B064A869F064287F86F85000687F86F8510000
:2042BC002F7C27B9EF6817B1012086F844002F795FB999F80C0000F00F00022805D10120D8
:2042DC0086F83800D9F808007063484608274568002D18BF002F70D100886FF30900B0F5EA
:2042FC00305F18BF022506D196F83300082540F0100086F8330006F1180090E80C00414645
:20431C0006F1180745EA0200194387E80300D4F8CC00824507D194F8D000410824BF00F0BD
:20433C00FE0084F8D00031480768002F39D004F194000090D4F89C10D4F8A02004F18C0554
:20435C002B463046B84710F1030F10D0B6F93010B4F9A820914207D0B4F9A81001F6FF718E
:20437C006FF31F31A4F8A81010F1020F1BD010F1030F18D096F83300B6F9308040F0800053
:20439C0086F8330000278AF8F4702868864205D0F068007B00F00F0002281CD10AF06AF9D0
:2043BC0019E06FF00200B4F9A810804601F6FF716FF31F31A4F8A81005E07F1E2846FFB24E
:2043DC0085E76FF0020894F8D00040F0040084F8D000C4F8CCA001980FF02AFE4046BDE8FD
:2043FC00FE8FC046CC2A0020FFEFFF9FAC600100202A00202DE9FE4F0D468246287AC1060E
:20441C0093461E464FF000090CD558460FF054FD030000F0EA800A222946504698475FEA76
:20443C0000094DD128780C9F0D9CDDF8388002281AD168680178407801EB002292B24FF40D
:20445C002053D21A012A10D9921E3AD0521E14D0FD3A7BD0521E00F08280521E6ED0521EBD
:20447C0074D0521E00F09680ACE0002C2AD1E868017839800278416888E0002C22D1012066
:20449C003880E9680A78327000216889401C80B20FF00EFD398860B10278921C511839800D
:2044BC00418971704289120AB27041680278F01C6DE0091D398004220021701C0EF054FEAE
:2044DC0095E0002C67D1E8680488042139803470220A72700DF1020120460FF0E9FC5FEAE7
:2044FC00000821D0D8F80C40BDF802204FF6FF756B4629460FF0D8FC50B998F80030D8F86F
:20451C0004203C4802210FF0CBFC08B9ADF80050207802280AD161680222301D0EF01AFE4B
:20453C003888801C388001E0ADF80040BDF80000B070BDF80010090AF17058E0002C2AD118
:20455C00E868016850460FF0C7F802E01CBBE8680088022139803070000A707047E0E868C4
:20457C000FF0F6F982B2A242B8BF4FF007093EDB944208BF002205D008EB04019142B4BF68
:20459C004246121B3A8092B2E868011930460EF0E1FD2CE014B14FF00B0928E0E8680721EC
:2045BC00398002783270437873704188B1704288120AF27001793171C2887271C088000A9F
:2045DC00B07114E058460FF067FC5FEA00090CD09DF83C000290CDF8048000943B46324643
:2045FC0029465046C847814601E04FF00E094846BDE8FE8F786201002DE9FE4FDFF8D4B133
:20461C009BF80000401E03284FF0010808D9103840F0DA80704B187800210FF049FD04466C
:20463C0014B900200DF056FC606D6C4F41786C4DC806216D4CBF886CC86E0622016801F114
:20465C000806B11C01A80EF085FD3078C0F380108DF800004FF01E0A3278624E02F00F0107
:20467C0003292CD101A90FF0D3FC002826D0606D807C012818BF032820D1296801A80FF041
:20469C00C3FCFF281AD01AFB00FA286810F80A205044411C38680FF0FBFB317888420DD087
:2046BC0028685044C11D386801AA0FF0EDFB28685044062201A9C01D0EF04CFD77E002F047
:2046DC000F00052873D19DF800004FEA521901A90FF09EFC78B3296801A80FF095FC616DFF
:2046FC00FF2820D0897C022918BF03291AFB00FA0AD1286810F80A205044411C38680FF018
:20471C00C7FB3178884252D028685044C11D386801AA0FF0B9FB28685044062201A9C01D53
:20473C000EF018FD24E04878C10647D5607B40F0020060731CE09BF80000022837D19DF86D
:20475C000010286801AA0FF05BFCFF282FD01AFB00FA286800EB0A014A7F012A04D00D30DC
:20477C0050440FF059FC10B340F201400FF05CFC606D4178C80621D51B498878410606D5D8
:20479C005FEAC97003D4206D41F20A4102E0206D41F20441418041834186144A1448154B4C
:2047BC001060198001211448007805F021FD606D4178C80602D5216D886C01E0216DC86E79
:2047DC0001680020087101E04FF000084046BDE8FE8F00BFC80F0020D50F00206C0F002086
:2047FC00680F0020E43C0020C00C0020480F00203D0000009A0F0020C70F00202DE9F0471A
:20481C00DFF8B4910E46D9F808101F4615460446ADF1300DBEB1B5B130784FF0010808FA77
:20483C0000F001420FD0104600210FF085F8A56066600FF069F8614D82462878022804DB0D
:20485C0050460FF0F5FB0020B2E000286CD101F009FF5B495B4E086840F00200086008A8A0
:20487C00C9F800600EF012FE574E5849707808AA0A9005F1D4000BF097F8554905F5847093
:20489C0008AA0BF091F808A80EF068FD192108AB3078504A099005F154000CF079FA4E4A9A
:2048BC0005F170001A2108AB0CF072FA4B49002205F59E7013460CF02BF84949002205F53C
:2048DC00C07013460CF024F846480068C0F3814030B1454A05F12800042100230DF04EFC94
:2048FC00B078012802D10E2006F0C8F905F194000EF0B8FB05F18C000EF0B4FB002185F88B
:20491C00241029762962072085F8280285F82510364B1970A9600526E960354A2E610420E4
:20493C00EA610DF04BFD287805EB8001401CC1F8AC40C0B2287050460FF07AFB1FB968461F
:20495C000EF0C2FB6F4638684FF4FA76E6602060B86941466062388A6175E082F869E062AB
:20497C00786800280CBF40F6C410002120612148E06120622175A061F86800B1E0617869A6
:20499C0000B12062B86800B1A061C82204F13000002108F0AFFC04F1480000210DF06EFA60
:2049BC001549002204F1B00013460BF0B1FF20460CB0BDE8F087C046CC210840202A0020CF
:2049DC0000200940110000E0206001003D2D010071A00000C9F3000061E30000D527010067
:2049FC00C92A0100B44F005051000100EB3C0020D597000017D10000C33801002DE9F0471E
:204A1C00794A8046107800210FF052FB98F80010044601291CBF00200DF05CFA14B90020AD
:204A3C000DF058FA04F14C0A0026DAF808004178DAF80470C80641F64C551FD507F16800C7
:204A5C0006808670C67006714671C68006818672C6727E67A07B01280BD00FF065FAB968DA
:204A7C0028180DF059FE20B10FF05EFA2D18BD60256194F829000BF0DFF87EE007F1940005
:204A9C0006808670C67006714671C68006818672C672C7F8A0600FF047FAB96828180DF0C0
:204ABC003BFE20B10FF040FA2D18BD60256107F14005607DC10607F1100950D5A27D99F8E8
:204ADC000000521CC0F38001002392B200F003000FF07EFAA0831E20A28B02F59B731E2175
:204AFC0093FBF0F001FB1030C0B208B1C0F11E008C46801800F59B7002F5967293B293FBBA
:204B1C00FCFC01FB1C316083A283C9B209B1C1F11E018A18A28392B2E17D491E4A4312FAC1
:204B3C0080F06083618BB868A63100EB810038660220E877618BB86800EB8100B863287865
:204B5C00012802D1B86B0C30B863A18CB86BA63100EB81007867022087F8730001E03E66B8
:204B7C00EE772249C86B4169086894F82910401C01EB4101405AA9F802006168DAF80400D1
:204B9C001B4A8A614860DAF808205078C3065CBF102088615078830703D5886940F40020D3
:204BBC0088615078430703D5886940F400008861104B187800281CBF507810F0030F03D05D
:204BDC00886940F4802088618AF80060DAF80810087E10F0300F04D04046BDE8F0470AF04A
:204BFC00C9B9BDE8F08700BFD50F0020B461010002000080880E00202DE9FC477048017860
:204C1C0011294FF0010840F0D5806E4F387800210FF04EFA040000F0CD80DFF8ACA16B4884
:204C3C00CAF8000001223978694F112005F011FA226D606DDFF89CE1674B6849009041F6FF
:204C5C00080C4578E80640F18980558841F2044085421FBFB2F81A908145568E864206D0AA
:204C7C0041F20A4085421CBF8145864201D138807CE000254FF4A05E40F2FE30182606FB80
:204C9C0005F99144B9F802603E80012EF6D036B3B61E012E23D9361A17D04FF48060361ACD
:204CBC002ED04FF44060361A19D0B61E012E16D9361F14D040F2FA30361A43D0761E37D039
:204CDC00F61E1DD0361F1BD041E0B2F8009040F60106B14503D16D1C022DCFDD64E0A07B52
:204CFC0001281CBF0428A7F800E0CAF80030087D002859D08868401C002288600A8253E00C
:204D1C00A07B012806BF41F20242A9F80220A9F802E03888604545D1CA68088A521CCA60DA
:204D3C00401C4A8A088284B2A2423BD2488239E000984178C8064CBF906CD06E01680020A6
:204D5C0008712FE000200DF0C5F8832003E000200DF0C0F884200FF0A3F92DE0508E388098
:204D7C0041F20444001B01D0801F02D1CAF800E01AE0508860450BD1CA68088A521CCA60ED
:204D9C00401C4A8A088284B2A24208D2488206E0087D20B18868401C002288600A8241F22E
:204DBC0006403880CAF8003001210D4A107805F01FFA01E04FF000084046BDE8F68700BF49
:204DDC00C80F0020D50F0020480F0020756B02109A0F00203D000000F93400005C3B002069
:204DFC00C70F00202DE9FE4F0DF042FB00255FEA000803D009F0DAFA4FF0FF386248006866
:204E1C0030B1804704E06148016809B101988847DFF87C915F4CD9F8003053F81C7F01AA95
:204E3C0069460DF10100B84700285B4F2DD10198A0F10C07B9790329E5D09DF800000026CE
:204E5C0000E0761C55490A7896420FD2E1688A5D8242F6D1F0B2FF2808D038790CF0A8F842
:204E7C00B979012908D10199087009E0D9F8000050F8081F8847CBE7022904BF01998870A5
:204E9C000199F0B201F06AFFC2E73968EAB231F8120028B9414802786D1CE9B29142F4D39D
:204EBC003E493F4E0878DFF8FCA08DF80000E9B2814224D2DAF80010884739685FFA85FBCB
:204EDC0031F81B20ADF80220002321F81B3031688847354A2570BDF8021052F82B30E8B282
:204EFC0098470546FF202070DAF800108847396831F81B20154321F81B50316888470DF0C6
:204F1C00B7FA054645451ED005B9284D28480068DAF80010A84238BF05468847D9F8001038
:204F3C0051F8202F804660689047A2682149521CA2602846D9F8005055F80CCF231DE04756
:204F5C003168404688471C4A1C4C106830B1D9F80010206851F8242F904712E000250BE042
:204F7C003968EAB231F8120028B1D9F80010206851F8242F90476D1C9DF80010E8B2884256
:204F9C00EED3BDE8F78F00BFA03C0020983C00201C280020B8280020D03C002070610100F8
:204FBC00E8230020E4230020405F01008EC2F528943C00202D6D00009C3C00208C3C00200C
:204FDC002DE9F04F704C002704F18C00ADF1140DB946B846056802978246CDF80C9025B339
:204FFC00D4F8A000B84203D1D4F89C00B8421AD0D4F89C60F6B1D4F89C102869096988425B
:20501C0018D195F83300400914D30127D4F89C00C06840880028F9D0D4F89C00C0684088D2
:20503C000128F3D006E0012704E004F1D40002210EF098FC002D43D087F0010B03A802AADE
:20505C00594607F03FFD5FEA000809D0012F07D0039929B104F59E700DF07CFF4D462FE09A
:20507C00002D2DD04948066856B3B8F1000F27D0039828BBCDF800B002980190D4F89C00AD
:20509C00D4F8A0100AF108035246B047401E02D0401E08D014E0029800B9284601214B4615
:2050BC000091014605E001230093D4F89C00D4F89C100069B1F930104A4602F0F3FF60E079
:2050DC00002F5ED0002D5CD060682969884252D1B8F1000F0BD0039848B1D4F89C0030B93F
:2050FC00D4F8A00018B908200CF0DAF849E008200DF006FD95F8330004F1D406C0F30010BE
:20511C0028B950460DF066FAC4F89C0004E050460DF060FAC4F8A000A8691D49C043086038
:20513C00A8694A6810434860E869C04341F8080CE86951F8042C104341F8040CEC68082012
:20515C0029460DF03BF920460DF002F92088A0F6020040B141F21E01401A04D041F6E671F6
:20517C00401A012803D8012021460DF027F94FF08041304603E004F1D4004FF480610EF0CC
:20519C00F1FB05B0BDE8F08F202A0020B0600100101004402DE9F04F8246ADF11C0D01F07A
:2051BC0061FA5F48007808F023FF5E4C0026012811D90C380FD0401E14D0401E012805D893
:2051DC000DF066FD022803D00DF062FD21680DE005211F2608E00DF05BFD0228F6D10121C9
:2051FC000E4601E003210726204601604E4AD068C0F38150012804D112680120120E904069
:20521C0006430EF00BF9DFF828B1DFF82081FF2240185B46401E471CC8F800007F1E03F8CC
:20523C00012BFBD1DAF80020002702F0FF03FE2B1CD0D4463B46012502F0FF04FF2C0ED079
:20525C00A04205D3A14203D805FA04F4264201D0022062E002F0FF0227430BF802305CF840
:20527C00042F5B1C02F0FF04FE2CE7D1092005F005FD3048C0F800A0374801210CF0FEFD09
:20529C00364C00254FF00109A84609FA05F0064214D1074207BF05F0FF0141F4C0411BF8A2
:2052BC0005005AF82010244804F026F8E8B24FF0FF310DF061FAC4F8008001E004202060AB
:2052DC001A4800686D1C241D8542DED904A80EF045F81A4C20781B4A05901948102104AB80
:2052FC000BF056FD68460EF0D1F86068174902901548CDF80C806A460AF056FB144951F8C6
:20531C000D0C20F4F85040F4005041F80D0C114AC1F8FF9F4046C2F8009007B0BDE8F08FC9
:20533C00EC3C002070290020A84F00506C290020503A0020C03C0020007FC767A4600100DC
:20535C00083B0020752A0100BC390020550701000D3009402C000940F0370020A436002080
:20537C002DE9F843DFF8AC910028074600F0A7803D68A86808B162490160E86808B16149F3
:20539C000160614C28786149207045260E8068786070687984F83C00A879BB6884F83D00CA
:2053BC001978E17093F8201084F858105A686260DE6966659968A1605A6AE265D968E1602B
:2053DC00196921619869596920650879032110FB01F080B20EF0A2FA804606200EF09EFA76
:2053FC00B8F1000F14D098B1DFF824C10023B96849690979994251DCC0F80080B968496965
:20541C0009790171B968496991F905104171606178680068A0612E69E66268692063A8690A
:20543C006063EB69A363286A7A682064906810B908F03DF900E020627868C06810B908F021
:20545C0036F900E060627868006910B908F02FF900E0A0627868406810B908F028F900E001
:20547C00E0612869E0626E6A6664AB6AA364E86AFA68E0649068006801210DF04FFBF9681C
:20549C00C86820B908F013F9F9684C4601E04C462060086849680DF053FE13E003EB830129
:2054BC00614491F9006003EB430242441670D1F801105B1C6FF39F51A2F8011097E708F03E
:2054DC00F6F84C4620681449144A154B45685020A84710B1206880688047124C606880479C
:2054FC00054611480EF0FEF80CF098FE0AF01CFCA168284688470BF02BFB0020BDE8F883AD
:20551C004314010091320100DC24002052290020902500201C28002021240100E93C0020D4
:20553C008C3C0020E0230020552D010070B54E4C4E4B2568186855F8183F00224FF0FF3127
:20555C0098470CF06BFA4A494A4AC86B4069417949481170002301680B8000244B800C719D
:20557C0000684371002007F077FF06F0F1F9434800680EF085FC0EF07FFC4148006800B1F9
:20559C0004734048006800B1C47200263E4C3F4D0EE06068F1B24FF4D072514342185379CD
:2055BC00012B04D1F0B20DF071FD0EF061FC761C2978F0B28842ECD30EF056FC3448354ABD
:2055DC00017811700AF010FD0BF094F83248334A8078C1074CBF07210521FF2400074CBFE2
:2055FC00FF20FB2001402E48017000212D48117000232D4A037001212C48117003702C4A09
:20561C002C48117003702C4A2C482D49137003702C4A2D4813801B2303804FF4A4702B4AA5
:20563C002B4B088010804FF429602A4A1880FB21294B1180198044F290202849284A0880DD
:20565C0010800EF00DFC0EF007FC2649264A002008701F212548047044708470C4700171B0
:20567C0025201070002070BD200F00201C0F0020B4610100CA0F0020400F00206C0F002049
:20569C00500F0020540F0020780E0020D40F0020C60F0020D30F0020C00C0020CC0F002065
:2056BC00C50F0020CD0F0020CE0F0020CF0F0020D00F0020D10F0020D20F0020E13C0020A6
:2056DC008C0F00209C0F00208A0F00208E0F0020900F0020920F0020960F0020940F0020AA
:2056FC00980F0020C80F0020E23C0020583C00202DE9F043ADF1140D0EF0AAFB0AF0DCFB62
:20571C00071C0CD00CF000FE5D4C00268046062134F80C0F28B1491E06F10106F8D10EF06C
:20573C0027F94FF6F870208067600025A560554C26707868A06040460DF0E0FB04F110066F
:20575C00304629460EF080FB4FF0FF302946E66009F058FB2178606050200CF0D3FC4A4939
:20577C000246102000F0FCFA217850200CF0CAFC4FF00209034646494448CDF800900122BE
:20579C000190102000F0ECFA6068294635A30A460CF065FC3F4EA8460EF052FBA068414645
:2057BC004FF040424FF0FF330EF046FB071CF3D0CDF8088003A804A902AA09F0F3FA00BB84
:2057DC009DF80C000DF10E010CF0B0F8B0B9BDF80E00ADF80C000DF0F9F8BDF80C00102897
:2057FC000AD120789DF81010884205D102980178D02901D100F050F8029810B102980EF0BC
:20581C004CF8F80FC8D3E0680EF012FB0028C3D1E06805460EF008FB854208BF454602D0F8
:20583C0085680BF051FE002DEDD02878012811D1696860680B680127B3F1004302D09B1BDD
:20585C0002D006E0474604E04946424609A30CF006FC1FB1686808B10BF036FE28460BF051
:20587C0033FED0E7424C452042726F6164636173746572004164766572746973696E670047
:20589C0028240020201B0020D96C0210BC260020EDD4000001000080F0B55F4C877866686D
:2058BC00ADF11C0D002F40F09B804778002F40F09C80C7798DF80970037A8DF80A30C27A9B
:2058DC008DF80F2000258DF80C5081798DF80B50877A8DF80810437A8DF80E704F4A8DF89C
:2058FC000D3002AF3B6879681360801D51600AF085F842A100913EA32A46012101903046F4
:20591C000CF0ADFB606802213DA32A460CF0A7FB666828460EF084FA0AF070F80090032120
:20593C003AA32A4630460CF09AFB3D4E3D493E4A671C122006F1200318801020009700F040
:20595C000FFAC0B230B101208DF810009DF810000028FBD103200090344F019662782B4668
:20597C003946102000F0FCF9C0B230B101208DF811009DF811000028FBD1172000900836CE
:20599C000196627839460123102000F0E9F9C0B230B101208DF812009DF812000028FBD12F
:2059BC00234962781020922300F0DAF9C0B230B101208DF813009DF813000028FBD12B46C4
:2059DC0000931C496278102000F0CAF9C0B260B101208DF814009DF814000028FBD104E038
:2059FC003046022100220DF0FFFD07B0F0BDC046257320416464723A20257300494400C0FB
:205A1C00496E697469616C697A656400525020416464723A20257300201B00209F1F00208C
:205A3C00B82600209901011049F00000F58100001DEF0110ED74011001282DE9F84F40F0AD
:205A5C00B080DFF88491D9F83401012840F0A6800220C9F834010DF00DF801200BF058FCFF
:205A7C005FEA000805D00120C9F834010DF010F899E011200DF012FE00280CBF00250125D3
:205A9C0010200DF00BFE08B145F002050F200DF005FE08B145F00405444CA06A0068014650
:205ABC0001208847012805D099F83801012818BF002703D1002002F067FE01270DF0E8FD96
:205ADC00DFF8ECA040080AD20026206A80680146504688478346BBF1040FF6D000E001268A
:205AFC00304600214FF0FF3201F048F9012E0ED0BBF1010F05D1206A406801210246504680
:205B1C00904732496C39086840F003000860206840690146284688470B200DF0BFFD254E5B
:205B3C0030B12068C06A3146091D0246088890470A200DF0B3FD28B12068C06A3146024649
:205B5C00088890471C4903200124C9F834011B4E0C600023336028460AF0D4F90128FAD16B
:205B7C00174D286804200BF0D3FB0646154804602868012F02D1204602F006FE0DF052FDE0
:205B9C0008200BF0C5FB0746C9F834410CF080FF57EA060018BF4FF0FF3804E06FF0040825
:205BBC0001E06FF001084046BDE8F88FB8010010004003405A590100282008608001044356
:205BDC002C2009400C4009406421002090220840F8B5074661485F4C001DC26A0168B7F534
:205BFC00C067C2F30722C4F81071C1F38441C4F81421C069C4F81811C0F38120C4F8280196
:205C1C0000F0A38094F830616EB9C4F82C71D4F81801C4F82001D4F81461C4F81C61D4F8B0
:205C3C002851C4F82451D4F82C01D4F81451002854BF02236FF0010304F59072116800EB52
:205C5C004000C018431000EB937001EBA0011160D4F82011C4F81C5100291CDD1E293DDD28
:205C7C00D4F8240130B93429B4BF15391E21C4F8201125E02A29BABFD4F820010B381E20A5
:205C9C00C4F82001D4F81C013E28D4BF401C3F20C4F81C011FE0D4F82401032812D011F196
:205CBC000A0FA6BFD4F820010B300120C4F82001D4F81C010028CCBF401E0020C4F81C0131
:205CDC00032009E011F1140FA6BFD4F8200115300120C4F820010020C4F824014FF08057CB
:205CFC00D7F8A401B4F81C111B4D40684FF47F4208230646009128463021B047D7F8A401F5
:205D1C0001214FF40032112340680091064604212846B047D7F8A401B4F8201140684FF451
:205D3C00F80212230646009104212846B047D7F8A401B4F8241140684FF440620A23044658
:205D5C00009120212846A047F8BD002084F83001F8BDC0466421002000A00C4000A00C4046
:205D7C000FB42DE9F04106AF8046ADF1280D0EF053F83E1D26F00306361D30F0010001D1A6
:205D9C000DF0B1F8CDF81A601420ADF816000025CDF80E50FF248DF818407B68CDF81E30D5
:205DBC000EF056F806460EF037F830F0010016D00CF0AAFA84464D4806212A46483030F8C5
:205DDC000C7F4FB143681B689E4204D0491E02F10102F4D100E0D4B260460DF08FF8404602
:205DFC000BF08CFB0146FF2905D0204603220DF11A0308F0B7FE0EF02BF80BF0AFFDA846B8
:205E1C000746CDF800800EF007F830F0010063D0002F61D041F2883001A90BF06FFD009C8B
:205E3C00002853D10EF00CF80199012645187868019B41464FF000520DF0FEFF00282BD029
:205E5C000DF122000DF1230102AA08F0ABFFB0B99DF8220003A90BF069FD38B9029A0DF0DF
:205E7C006BFC00281CBF029C464615D1029968460BF069FF78684FF000510DF0C9FF019812
:205E9C00B0F1FF3FD3D00028D1D00DF0D9FF281A02D00199814217D20CF098FD07F10805D6
:205EBC00009F0CF031FA01463FB13A4652F80C0C40B9286842F80C0C2F6008460DF01EF81C
:205EDC00304603E00246F1E70190B0E720B92CB120460DF0E2FC01E00DF005F8DDF81A0044
:205EFC0000680AB0BDE8F04104B07047E02300202DE9F8435F4CDFF868815B4DD4F83C0193
:205F1C0000286ED0574E401E0AD0401E60D0401E1CD0401E53D0401E1AD0401E33D02FE011
:205F3C004E4801250221006884F83A517022042340680091002107464046B847356004F188
:205F5C0050000DF0D7FC2846BDE8F883022100E003214FF08059D9F8A40184F83A11406853
:205F7C000025702204232946074600954046B847D9F8A401C0687022294613460125DAE772
:205F9C000320BDE8F88300262E606E6028688008FCD268688008FCD2374834490127001DD3
:205FBC0006600E200F6004F037FC02200BF066FDC4F83C6184F83B610220BDE8F883052043
:205FDC00C4F83C010027376030688008FCD242E00320C4F83C010027376030688008FCD216
:205FFC0039E0234F01260F202E6042F62A21C7F80B004FF08059C7F80F10D9F8A4014068B5
:20601C004FF4C072072302218446404600910021E047D9F8A401C06800214FF4C07207231B
:20603C0084464046E0472E6028688008FCD394F83901C7F81B6018B9032100200E4602E00D
:20605C00002028630321C4F83C6147F8011C686068688008FCD20020BDE8F883A4010010BD
:20607C0000A00C4058600C4054600C4004800C4001400C406421002038500C402DE9F04FE9
:20609C005F4C0C3C94F8318094F832A04FEA880000EBC8000019B0F84C00ADF1240D0025E1
:2060BC00ADF81C0004F1300008904FEA8A0000EBCA000019B0F84C60657006A80AF088FE5E
:2060DC00AB46BDF81C106078162951DD002840F09080BDF81C0001AAC01F81B2ADF81C10C6
:2060FC00404605F075FDBDF81210BDF81C200D46E81D05F1100387B2934273D89DF80E0072
:20611C0096286FD19DF80F00420827D2800825D3BDF81C00CDF800B0401B1FFA80F99DF836
:20613C000D20BDF81C004346401A80B20BF01AFA70B9E068C6F1885209EB48393B46D21B3C
:20615C00494602F500520DF035FBF619B6B205E0BDF81C00401EADF81C0043E0BDF81C00DE
:20617C00401BADF81C00BDF81C1060781629ADDC00283ED14FF6F0704FF40051C6EA004006
:20619C00C6EA0141E1FA40F01FFAA0F283B2102102F1885250460AF053F861780843607039
:2061BC0006980CF08DFD08994FEA8A0000EBCA0040188683BDF81C70A4F84470A4F8406058
:2061DC00B4F9422094F83D10012350460BF0C2FF94F83E10B4F94420504602230BF0BAFFEB
:2061FC0058460AE0404607A908F012FA01283FF468AF06980CF064FD102009B0BDE8F08F46
:20621C00882400202DE9F04106467468B5680DF07BFBD4F8C8108046002900F09D8094F86B
:20623C00000128B9087C032818BF042840F0998028790DF06BFBD4F8D400416868690A68D5
:20625C00D06294F801711FB92B68D9684909FCD22B68596821F0020159602969D1622B68AD
:20627C00596A21F00301596229690843C2F804052968486920F001004861286801270762B2
:20629C002868B0F1804F19BF3848394B39483A4BD4F8C820D4F8DC101160D4F8E0705FB1F7
:2062BC008068C0F30910401C874205D3D4F8C8201168C919091A1160D4F8E4705FB198683E
:2062DC00C0F30910401C874205D3D4F8C8201168C919091A1160304608F0D6FE28790DF056
:2062FC000FFB28790DF014FBD4F8C870386857B100230222397C03291CBF04293A743B60A6
:20631C007F69002FF6D1D4F8C8100860D4F8D0100022002904BFD4F8C800C4F8D00004D0C9
:20633C004869B8B9D4F8C8004861C4F8D820C4F8DC20C4F8E020C4F8E420C4F8C820C4F89A
:20635C00CC2040460DF074FE04F140000DF00CFBBDE8F0810146E3E72968486820F002008D
:20637C00486040460DF064FEBDE8F08100190020001B002030180020301A00202DE9F84FBB
:20639C00074686B07888574DDFF85CB188460DF03BFD064604A800903B7B7989388907F1DA
:2063BC000D020DF02DFD00248246059649E06968FF208855A3B26868FF22C25434E0A0B24C
:2063DC00002877D1788800234FF6FF7211210DF013FD0028686067D0BBF80000001D68803A
:2063FC00641C6968BAF80A008855A2B2BAF80A006968000A8854BDF8102079890DF11203D6
:20641C0050460DF051FD661C8246741CBAF1000FB6B2CCD06968BDF812008855A2B2BDF869
:20643C0012006968000A8854641C30486B680168BBF80020A6B298190CF08CFEBBF800002E
:20645C000419BAF1000FA6B222D0BDF810207888514607F067FB8146A0B938790599234B4D
:20647C001B6803908A1F92B2002002920190CDF800B0BDF8102078885146FDF7BBFF0028F1
:20649C0081469CD0BAF80A10A8F80010484600E00020A4B2CCB901003989A8F8001008BF8E
:2064BC000A2007B0BDE8F08FBAF80A00A8F800001120F6E7BBF800006988021D914204D1E6
:2064DC000599891F801981428ADA688896FBF0F02880294678880DF08BFC002818BF162069
:2064FC00DFE700BF380C0020840F0020080F00202DE9F0474D4C4E4D94F800904D4FA9F1DA
:20651C00090004288AB000F28680DFE800F00D0D03036D00788810F47F4FFBD0288000204F
:20653C000BF0D8FC85207AE002A84349202205F039FC788810F47F4FFCD0404EDFF800A12B
:20655C00DFF8008128804FF4A051401A3E4D14D0C01E12D040F20141401AE0D13B4A3468C2
:20657C00DAF800000023CDE9002354F85C6F434602AA3946B047288053E0B9F1090F0FD1F2
:20659C0033490A6850890028C9D0324908780DF02BFC002100200DF023FC0020207040E00B
:2065BC00B9F10A0FBBD12C4C20780028B7D06078002804BFA078012833D101216170002096
:2065DC000DF0B8F9254836680021CDE900014346DAF8000056F85CAF214902AAD047288085
:2065FC0000206070A0701CE078882880022807D94FF4A051401A03D040F20441401A8ED140
:20661C00B87B801CB873C0B2B528A4BF6620B8730021798005E000200BF05CFC84200DF0EE
:20663C003FFD01200AB0BDE8F08700BFC80F00209A0F0020940B002020620100200F0020FB
:20665C001C0F0020E5B40000880F002002000080440F0020CA0F0020043C002002808080B3
:20667C00500C00202DE9F0435A4C94F84201ADF1140D002840F093804B484C4E4FF0010825
:20669C00027B3368416884F84281814684F84121C3F38147C4F86C11BFB9D9F81000A0B1D8
:2066BC0056F8085C0CF094FF64210246C5F306604143B1FBF2F23E49002304F194000AF051
:2066DC0027F93C494FF00040086001A80DF05EF800252F4604F10C00029501AB8DF804703F
:2066FC00354903953A460AF013F901A80DF04EF804F150000822029501AB8DF804702F49D3
:20671C0003950AF005F92E4A04F1D80032213B460AF03EFB2C4A2B4F04F1F4002C212B46EA
:20673C003D600AF035FB294899F80D3000783068C0F381501BB1032803D184F83981032877
:20675C001FD002281DD001281BD14FF08059D9F8A4011F4C406803214FF040521C230746E0
:20677C00009129462046B847D9F8A401406829464FF4007209230746CDF800802046B84733
:20679C0006E0386840F04000386002200BF08EF956F8040CC00802D228460BF087F905B013
:2067BC000020BDE8F083C046045F0100B44F0050452E010000A10C401FEE00000D04010048
:2067DC00892201009022084041D70000EC3C002000A00C40642100202DE9FE4FD0F8F030BB
:2067FC0088460022083B002BC8BF0122D0F8C8C0D0F8D810634600931B688B420ED861465C
:20681C004F69002FBC4600F0898001218CF81010D0F8C8104FF00009009100E08946DCF8B8
:20683C000010A1EB0901B1F5806F88BF4FF48061D0F8E0705FB9C0F8E010D8F80030B3F11A
:20685C00804F19BF364F374E374F384E0AE0C0F8E410D8F80030B3F1804F19BF344F354E78
:20687C00354F364EDCF804403CB9354C4FEA820E54F80E5000F1FE040CE0324D4FEA820ECC
:20689C0055F80E5002F1010B01FA02FA09FB0B445444641EB560083334600D017360103DBC
:2068BC00B468019343F6F0732B401C43B460DCF808602EB9224A52F80E4000F1FC0209E093
:2068DC00214C54F80E40551C01FA02F209FB05655219521EBC607A60019A009E3A60BA6801
:2068FC00664543EA0203BB6004D1D0F8D8205218C0F8D82090F8067187B9D8F80020516AEB
:20691C0041F003015162D0F8D400D8F814704268D8F81010126847EA01009062BDE8FE8F19
